:100000000C947C080C94A4080C94A4080C94A408E8
:100010000C94A4080C94A4080C94A4080C94A408B0
:100020000C94A4080C94A4080C94610E0C94D00EAB
:100030000C94A4080C94A4080C94A4080C94A40890
:100040000C94A4080C94A4080C94A4080C94A40880
:100050000C94A4080C94A4080C94A4080C94021109
:100060000C94A4080C94A4080C94A4080C94A40860
:100070000C94A4080C94A4080C94A4080C94A40850
:100080000C944C110C94A4080C94A4080C94A4088F
:100090000C94A4080C94A4080C94A4080C94A40830
:1000A0000C94A4080C94A4080C94A408000000006C
:1000B000003E5B4F5B3E3E6B4F6B3E1C3E7C3E1CEE
:1000C000183C7E3C181C577D571C1C5E7F5E1C0034
:1000D000183C1800FFE7C3E7FF0018241800FFE7EB
:1000E000DBE7FF30483A060E2629792926407F05AE
:1000F0000507407F05253F5A3CE73C5A7F3E1C1CC4
:1001000008081C1C3E7F14227F22145F5F005F5F83
:1001100006097F017F006689956A6060606060946F
:10012000A2FFA29408047E040810207E2010080874
:100130002A1C08081C2A08081E101010100C1E0C7F
:100140001E0C30383E3830060E3E0E060000000011
:100150000000005F00000007000700147F147F14F8
:10016000242A7F2A1223130864623649562050003D
:1001700008070300001C2241000041221C002A1C29
:100180007F1C2A08083E0808008070300008080814
:100190000808000060600020100804023E51494534
:1001A0003E00427F400072494949462141494D3352
:1001B0001814127F1027454545393C4A49493141B9
:1001C000211109073649494936464949291E000087
:1001D00014000000403400000008142241141414DC
:1001E0001414004122140802015909063E415D59C8
:1001F0004E7C1211127C7F494949363E41414122D1
:100200007F4141413E7F494949417F090909013EFA
:10021000414151737F0808087F00417F4100204021
:10022000413F017F081422417F404040407F021C33
:10023000027F7F0408107F3E4141413E7F0909094A
:10024000063E4151215E7F09192946264949493216
:1002500003017F01033F4040403F1F2040201F3FDC
:100260004038403F63140814630304780403615961
:10027000494D43007F4141410204081020004141A3
:10028000417F04020102044040404040000307084F
:100290000020545478407F2844443838444444284B
:1002A000384444287F385454541800087E090218F2
:1002B000A4A49C787F0804047800447D400020407A
:1002C000403D007F1028440000417F40007C0478BE
:1002D00004787C080404783844444438FC18242406
:1002E0001818242418FC7C08040408485454542486
:1002F00004043F44243C4040207C1C2040201C3C03
:100300004030403C44281028444C9090907C4464F9
:10031000544C44000836410000007700000041368C
:10032000080002010204023C2623263C1EA1A16112
:10033000123A4040207A3854545559215555794144
:100340002154547841215554784020545579400C1B
:100350001E527212395555555939545454593955FC
:100360005454580000457C410002457D420001453F
:100370007C40F0292429F0F0282528F07C545545AC
:10038000002054547C547C0A097F4932494949323F
:100390003248484832324A4848303A4141217A3A54
:1003A00042402078009DA0A07D39444444393D401E
:1003B00040403D3C24FF2424487E4943662B2FFCCB
:1003C0002F2BFF0929F620C0887E09032054547979
:1003D000410000447D413048484A32384040227A4A
:1003E000007A0A0A727D0D19317D2629292F2826C7
:1003F0002929292630484D402038080808080808CF
:100400000808382F10C8ACBA2F102834FA00007B27
:10041000000008142A142222142A1408950022002D
:1004200095AA005500AAAA55AA55AA000000FF00E7
:10043000101010FF00141414FF001010FF00FF1024
:1004400010F010F0141414FC001414F700FF000056
:10045000FF00FF1414F404FC141417101F10101FD5
:10046000101F1414141F00101010F0000000001FC3
:10047000101010101F10101010F010000000FF10CE
:100480001010101010101010FF10000000FF1400CA
:1004900000FF00FF00001F10170000FC04F41414FC
:1004A0001710171414F404F40000FF00F7141414C8
:1004B00014141414F700F7141414171410101F1048
:1004C0001F141414F4141010F010F000001F101F6B
:1004D0000000001F14000000FC140000F010F010D9
:1004E00010FF10FF141414FF141010101F00000050
:1004F00000F010FFFFFFFFFFF0F0F0F0F0FFFFFF54
:100500000000000000FFFF0F0F0F0F0F38444438AA
:10051000447C2A2A3E147E02020606027E027E02E5
:1005200063554941633844443C04407E201E200604
:10053000027E020299A5E7A5991C2A492A1C4C7241
:1005400001724C304A4D4D303048784830BC625AC8
:10055000463D3E494949007E0101017E2A2A2A2A58
:100560002A44445F444440514A444040444A514034
:100570000000FF0103E080FF000008086B6B0836F5
:1005800012362436060F090F060000181800000066
:100590001010003040FF0101001F01011E00191D55
:1005A0001712003C3C3C3C0000000000F0F89C8E20
:1005B0008783878E9CF8F00000FEFF03030303038C
:1005C000070EFCF80000FEFF0303030303070EFC05
:1005D000F80000FFFF00000000000000FFFF000027
:1005E000FEFF8383838383C7EE7C380000F8FC0E14
:1005F00007030303070EFCF800003F7FE0C0808084
:10060000C0E07F3FFFFF01010101010101FFFF0089
:1006100000FFFF0C0C0C0C1C3E77E3C100007FFFB9
:10062000C0C0C0C0C0E0703F1F00001F3F70E0C0EE
:10063000C0C0E0703F1F00007FFFC1C1C1C1C1E366
:10064000773E1C00001F3F70E0C0C0C0E0703F1F3D
:10065000000000000001FFFF01000000D5F08D1434
:10066000A1C881CFD9F1AF200008083C7E81ADAD93
:10067000837E3C804001FC02FA0A2A0A0A0A0A0A1E
:100680000A0A0A0A0A0A0A0A0A0A0A0A0A0A0A0ACA
:100690000A0A0A0A0A0A0A0A0A0A0A0A0A0A0A0ABA
:1006A0000A0A0A0A0A0A0A0A0A0A0A0A0A0A0A0AAA
:1006B0000A0A0A0A0A0A0A0A0A0A0A0A0A0A0A0A9A
:1006C0000A0A0A0A0A0A0A0A0A0A0A0A0A0A0A0A8A
:1006D0000A0A0A0A0A0A0A0A0A0A0A0A0A0A0A0A7A
:1006E0000A0A0A0A0A0A0A0A0A0A0A0A0A0A0A2A4A
:1006F0000AF202FC0100FF00FF0000000000000001
:100700000080E0F0F0F87878787830000000C0E001
:10071000F0F8F8F8F0E0C00000F0F8F8F8F0E0E0E9
:10072000F0F8F8F8F000E0F0F0F8F8F878787830C1
:100730000000000000000080E0F0F0F8F8F8F8F0A9
:10074000F0E08000F0F8F8F8F000F0F8F8F8F000C9
:10075000E0F0F0F8F8F8787878300000C0F0F8F8B9
:10076000F87878F8F0F0E0000000000000000000E9
:1007700000FF00FF0000FF00FF000000000000007D
:1007800000071F3F3F7C78783B7F7F7F003F7F7F64
:100790007F3331337F7F7F3F003F7F7F3F030707FA
:1007A000033F7F7F3F001F3F3F7F7F7F7B7B7878CA
:1007B00030000000000000071F3F3F7F79797F3F36
:1007C0003F1F070001071F3F7F7E7F3F1F0701007C
:1007D0001F3F3F7F7F7F7B7B787830003F7F7F7F2D
:1007E0003F1E3E7F7F73610000000000000000009C
:1007F00000FF00FF0000FF00FF00000000000000FD
:1008000000000000000000000000000000000000E8
:1008100000000000000000000000000000000000D8
:1008200000000000000000000000000000000000C8
:1008300000000000000000000000000000000000B8
:1008400000000000000000000000000000000000A8
:100850000000000000000000000000000000000098
:100860000000000000000000000000000000000088
:1008700000FF00FF0000FF00FF000000000000007C
:100880000000000000000000000000000000000068
:100890000000000000000000000000000000000058
:1008A0000000000000000000000000000000000048
:1008B0000000000000000000000000000000000038
:1008C0000000000000000000000000000000000028
:1008D0000000000000000000000000000000000018
:1008E0000000000000000000000000000000000008
:1008F00000FF00FF0000FF00FF00000000000000FC
:1009000000000000000000000000000000000000E7
:1009100000000000000000000000000000000000D7
:1009200000000000000000000000000000000000C7
:1009300000000000000000000000000000000000B7
:1009400000000000000000000000000000000000A7
:100950000000000000000000000000000000000097
:100960000000000000000000000000000000000087
:1009700000FF00FF0000FF00FF000000000000007B
:100980000000000000000000000000000000000067
:100990000000000000000000000000000000000057
:1009A0000000000000000000000000000000000047
:1009B0000000000000000000000000000000000037
:1009C0000000000000000000000000000000000027
:1009D0000000000000000000000000000000000017
:1009E0000000000000000000000000000000000007
:1009F00000FF00FF00803F404F5054505050505077
:100A000050505050505050505050505050505050E6
:100A100050505050505050505050505050505050D6
:100A200050505050505050505050505050505050C6
:100A300050505050505050505050505050505050B6
:100A400050505050505050505050505050505050A6
:100A50005050505050505050505050505050505096
:100A60005050505050505050505050505050505482
:100A7000504F403F804A811600000002004A811911
:100A80000000805D811D0000000200268122000020
:100A900000020026812400000002005D8120000089
:100AA00080053855AA44001055AA44001155AA449F
:100AB000001155AA44001155AA44001155AA44003A
:100AC0001101000000000538100044AA551100442F
:100AD000AA55110044AA55110044AA55110044AA70
:100AE00055110044AA55000000000108083C7E830F
:100AF000EDED837E3C64200000000000000000005B
:100B0000C0C0C0C0E0C0C0C0E0C0C8C020008800F5
:100B1000200088002200880022008800220088002F
:100B2000220088002200880022008880E2C0C8C01D
:100B3000E2C0C8002200880022008800220088004D
:100B40002000880020008800200080002000800015
:100B5000000000000000000000000000000088000D
:100B60002200880023038B81FFFFFFFFA3038B0379
:100B7000220FFFFFFFFFEFE7E70F8F0F2E008FFF22
:100B8000FFFFFFFCFAE0FFFFFFFF8F00AE9F9FBF5C
:100B90003F3DF9F9FBF3FBE3220FFFFFFFFF880066
:100BA00022FFFFFFFF0F88C0FFFFFFFFFAE0F8FF03
:100BB000FFFFFFC022008800220088000000000024
:100BC00000000000020008002200080727078F0726
:100BD00027008800221E9F1F3F1F9C1C3E1E9E1E3A
:100BE0002E009E1F3F1F9F0023079F1F3F1F9E0039
:100BF00023078F0727078F072303890022008B0F06
:100C00002F1F9F1E3F1F8F0F2300881F3F1F9F1FF7
:100C1000230F8B1F3F1F1F1F220008000200000030
:100C200000000000000000000000000000000000C4
:100C300000000000000000000200000002000000B0
:100C4000020008000200080002000800020008007C
:100C5000020008000200080002000800020008006C
:100C6000020008000200080002000000020000006C
:100C70000200000000000000000000000000000072
:100C800000000000000000804000FC02F20A2A0A76
:100C90000A0A0A0A0A0A0A0A0A0A0A0A0A0A0A0AB4
:100CA0000A0A0A0A0A0A0A0A0A0A0A0A0A0A0A0AA4
:100CB0000A0A0A0A0A0A0A0A0A0A0A0A0A0A0A0A94
:100CC0000A0A0A0A0A0A0A0A0A0A0A0A0A0A0A0A84
:100CD0000A0A0A0A0A0A0A0A0A0A0A0A0A0A0A0A74
:100CE0000A0A0A0A0A0A0A0A0A0A0A0A0A0A0A0A64
:100CF0000A0A0A0A0A0A0A0A0A0A0A0A0A0A0A0A54
:100D00000A0A0A2A0AF202FC0000FF00FF000000A3
:100D100000000000000000000000000000000000D3
:100D200000000000000000000000000000000000C3
:100D300000000000000000000000000000000000B3
:100D400000000000000000000000000000000000A3
:100D50000000000000000000000000000000000093
:100D60000000000000000000000000000000000083
:100D70000000000000000000000000000000000073
:100D80000000000000FF00FF0000FF00FF00000067
:100D90000000000000000000000000000000000053
:100DA0000000000000000000000000000000000043
:100DB0000000000000000000000000000000000033
:100DC0000000000000000000000000000000000023
:100DD0000000000000000000000000000000000013
:100DE0000000000000000000000000000000000003
:100DF00000000000000000000000000000000000F3
:100E00000000000000FF00FF0000FF00FF000000E6
:100E100000000000000000000000000000000000D2
:100E200000000000000000000000000000000000C2
:100E300000000000000000000000000000000000B2
:100E400000000000000000000000000000000000A2
:100E50000000000000000000000000000000000092
:100E60000000000000000000000000000000000082
:100E70000000000000000000000000000000000072
:100E80000000000000FF00FF0000FF00FF00000066
:100E90000000000000000000000000000000000052
:100EA0000000000000000000000000000000000042
:100EB0000000000000000000000000000000000032
:100EC0000000000000000000000000000000000022
:100ED0000000000000000000000000000000000012
:100EE0000000000000000000000000000000000002
:100EF00000000000000000000000000000000000F2
:100F00000000000000FF00FF0000FF00FF0000F8ED
:100F1000102010F800F02828F000F828689000F859
:100F2000205088000000000000F82828080088F8F9
:100F30008800F8A8A88800F880808000F888887069
:100F40000090A8A84800000000000008F80800F879
:100F50002020F800F02828F00008F8080000000021
:100F60000000F8102010F800F02828F000F82050B9
:100F70008800F8A8A88800000000000090F8800011
:100F80007088887000FF00FF0000FF00FF00000075
:100F90000000000000000000000000000008F80849
:100FA00000F82020F800F8A8A88800000000000041
:100FB000F8102010F8007088887000F828689000F9
:100FC000F8A8A88800000000000008F80800F82031
:100FD00020F800F8A8A888000000000000F8A8A8E1
:100FE0005000F8A8A8880008F8080008F80800F8D9
:100FF000A8A88800F8286890000000000000000001
:101000000000000000FF00FF00003F404F50545020
:1010100050505050505050505050505050505050D0
:1010200050505050505050505050505050505050C0
:1010300050505050505050505050505050505050B0
:1010400050505050505050505050505050505050A0
:101050005050505050505050505050505050505090
:101060005050505050505050505050505050505080
:101070005050505050505050505050505050505070
:1010800050505054504F403F00080B0002020200E5
:1010900000090400000102020000052400100105FF
:1010A000240101010424020605240600010705812C
:1010B0000310004009040100020A000000070502B5
:1010C00002400000070583024000000403090412E7
:1010D000010002EF020140412336800001010203BA
:1010E0000141726475696E6F204C4C43004172641B
:1010F00075626F790000C61111241FBECFEFDAE0D0
:10110000DEBFCDBF11E0A0E0B1E0E6E2F6E302C051
:1011100005900D92AE35B107D9F726E0AEE5B1E006
:1011200001C01D92AB38B207E1F718E0CCE7D8E078
:1011300004C02197FE010E941919CB37D107C9F7C6
:101140000E94F3110C94111B0C9400008091670114
:1011500008954F925F926F927F928F929F92AF927B
:10116000BF92CF92DF92EF92FF920F931F93CF9394
:10117000DF939C01FA0194913196E491E92EF12CD0
:10118000E701C20FD31F1C161D060CF089C02038C2
:1011900031050CF085C0DB01AE0FB11DAB2B09F49E
:1011A0007FC0603471050CF07BC0F62FF7708F2E76
:1011B000F3E075956795FA95E1F7862FAA27BB2787
:1011C000A21BB30B37FD02C0B0E0A0E0C038D105D0
:1011D00014F090E8921B692E6A1AC1E0FE2FF77096
:1011E00009F4C0E0E695E695E6959C2E9E0EFB017F
:1011F000E90DF11D39971CF0E8E09E2E961AFB01CF
:10120000F695FE2FEE27F795E7952E0F3F1F2A0F35
:101210003B1F4E5F5F4F4A0F5B1FC82C082C000C12
:10122000DD08AFEFB0E0082C02C0AA0FBB1F0A9484
:10123000E2F72D0140945094752CE82FE61BE91538
:1012400078F5E901CD5DDD4F10E000E0061510F501
:10125000FA01E00FF11FE491F0E00C2C02C0EE0F58
:10126000FF1F0A94E2F787FD04C0B880B420BE2AAD
:10127000B882882059F087304CF45E0190E8A90EBE
:10128000B11CD501EC91E721EF2BEC930F5F1F4FC1
:101290002196DCCF4E0D5F1D20583F4F8F5FCDCF85
:1012A000DF91CF911F910F91FF90EF90DF90CF9042
:1012B000BF90AF909F908F907F906F905F904F9076
:1012C0000895480F592F511D1416150684F58038BE
:1012D00091056CF597FF02C090E080E04138510520
:1012E00014F040E850E0481BFB01E770FF2721E0C5
:1012F00001C0220FEA95EAF777FF02C0695F7F4FCE
:10130000FB0133E0F595E7953A95E1F7F695FE2F69
:10131000EE27F795E795E80FF91FED5DFD4F41507A
:1013200030F08191DF011197822B8C93F8CF0895D3
:10133000E3E2F2E0A0E0B8E000800EBC8111012CF5
:101340001197A0FDFDCF0192B9F70DB40895FC01EE
:1013500080912202882311F13FB7F89482E08093B4
:10136000E9002091F200822F90E01816190614F47B
:1013700081E090E0882339F0289844E640932102E8
:101380004091F1004083222339F02091F200211195
:1013900003C02BE62093E8003FBF08958FEF9FEF37
:1013A00008952FB7F89483E08093E9009091E800C6
:1013B000892F807295FF04C09091F20080E4891B10
:1013C0002FBF08958091190281110DC082E0809392
:1013D000150284E0809316021092180210921702F0
:1013E00081E08093190285E192E00895CF93DF9325
:1013F0001F92CDB7DEB76983DC01ED91FC910280CD
:10140000F381E02D41E050E0BE016F5F7F4F099511
:101410000F90DF91CF91089583E08093E900809150
:10142000F200882319F08AE38093E80008950E946F
:10143000D10990E00895CF93DF931F92CDB7DEB727
:10144000FC018485958597FD08C02FEF3FEF358718
:1014500024870F90DF91CF910895CE0101960E94CD
:10146000A709019719F4898190E0F3CF8FEF9FEFDF
:10147000F0CF0F931F93CF93DF931F92CDB7DEB7BB
:101480008C01FC018485958597FF0BC0CE010196E8
:101490000E94A709019771F4898190E0F80195876E
:1014A0008487F801848595850F90DF91CF911F91F6
:1014B0000F9108958FEF9FEFF1CFFC018485958503
:1014C00097FD0BC09FB7F89482E08093E90080916C
:1014D000F2009FBF90E0019608959FB7F89482E0D4
:1014E0008093E9008091F2009FBF90E008954091C1
:1014F0000F025091100220910D0230910E024217FE
:101500005307B4F49091E8009570E1F39091E800EE
:1015100092FD19C08093F10080910F02909110020A
:1015200001968F739927892B19F48EEF8093E80029
:1015300080910F0290911002019690931002809377
:101540000F0281E0089580E00895DF92EF92FF920C
:101550000F931F93CF93DF93D82E8A01EB017B016A
:10156000E40EF51ECE15DF0559F0D7FE12C0FE01C0
:1015700084910E94770A21968111F4CF0FEF1FEF1B
:10158000C801DF91CF911F910F91FF90EF90DF90F5
:1015900008958881EECF0F931F93CF93DF931F920F
:1015A000CDB7DEB782E0898342E450E069E870E1BC
:1015B00080E80E94A50A0E94E209DC0112960D91C2
:1015C0001C910115110589F0D801ED91FC91028063
:1015D000F381E02DBE016F5F7F4FC801099597FD34
:1015E00004C0F80100851185ECCF89810F90DF914F
:1015F000CF911F910F910895615030F02091F1002B
:10160000FC0120830196F8CF289884E6809321027C
:101610000895FC010E94A00B319728F068517C4F7F
:101620008F4F9F4FF9CFAB01FC010E94A00B6417B5
:1016300075078E079F07C8F308958F929F92AF9208
:10164000BF92CF92DF92EF92FF920F931F93CF93AF
:10165000DF936C017B018A0180911001882309F4DA
:101660005AC080912202882309F455C08091140247
:1016700080FF05C08091E00082608093E000E80177
:10168000B12C8AEFA82E93E0892E2AE3922E209780
:1016900011F4BB20C9F10E94D109811108C0AA949C
:1016A000AA20C9F181E090E00E94090BF0CF8C17CD
:1016B0001D0611F00CF08C2F9FB7F8948092E90072
:1016C0002091E80025FD02C09FBFE1CF282F30E028
:1016D000C21BD30BF701815020F041914093F100E0
:1016E000FACFE20EF31EBB2021F09092E800B12C5D
:1016F000EBCF8091E80085FDE7CF9092E800BB2416
:10170000B394209709F3F3CF5D9884E68093130296
:10171000101611063CF081E090E0F601938382837D
:1017200010E000E0C801DF91CF911F910F91FF9071
:10173000EF90DF90CF90BF90AF909F908F900895E3
:10174000A9E0B2E02FB7F8947D918D919C9166B598
:101750002FBFA89B05C06F3F18F47F5F8F4F9F4F2F
:1017600022E0660F771F881F991F2A95D1F70895E9
:10177000AF92BF92CF92DF92EF92FF920F931F939F
:10178000CF93DF936C017B018B01040F151FEB01DD
:101790005E01AE18BF08C017D10759F06991D60194
:1017A000ED91FC910190F081E02DC6010995892B06
:1017B00079F7C501DF91CF911F910F91FF90EF90C5
:1017C000DF90CF90BF90AF90089520917001E0918D
:1017D0006E01F0916F01CF01029690936F0180939B
:1017E0006E01222319F08591949108958081918151
:1017F0000895CF92DF92EF92FF92CF93DF930E94F2
:10180000E50B811520E8920791F4809171008D7F9E
:101810008093710010929100469847981092600151
:10182000DF91CF91FF90EF90DF90CF90089521E06E
:1018300020936001813020E8920751F480916C017F
:1018400090916D0190936F0180936E010E94E50B62
:1018500097FD05C020915F01222309F454C0209117
:101860005E01211150C021E020936101EC01DF777E
:10187000209709F04BC081E08093620146983FE9D0
:10188000C32E3FE0D32EE12CF12CCAEFD0E0E09143
:101890008106F09182060995811103C081E0809351
:1018A000620180916101882329F08091620188237F
:1018B00009F43FC047980E94E50B0097F1F19C01A5
:1018C000DE010E94D618DC01CB0129E0B595A79571
:1018D000979587952A95D1F7109290002AE020934A
:1018E0009100D0929900C0929800809363019093E8
:1018F0006401A0936501B0936601809171008260DC
:10190000809371008DCF10926101B0CF9E0150E0A5
:1019100040E060E472E48FE090E00E944B186901BF
:101920007A0181E0C81AD108E108F1081092620139
:10193000AECF4699BFCF479ABECF8FEF9FEFDC0166
:10194000CBCF90E00C94090B8FB18095807F669B84
:1019500088601C9B846008953E9A3F9A81E0809342
:101960006701089590E1282F81E061FD84E060FD2A
:10197000880F62FD8295687F969FD0011124A20F87
:10198000AD5DBD4F0C90082A40FF08260C920895CB
:10199000EF92FF920F931F93CF93DF937C018B0104
:1019A000040F111DEB0177FF02C0D0E0C0E0C801B9
:1019B0000134110514F080E490E0C817D9075CF4F5
:1019C00080E8E816F10428F441E0BE01C7010E9456
:1019D000B20C2196ECCFDF91CF911F910F91FF9028
:1019E000EF900895EF92FF920F931F93CF93DF93A1
:1019F0007C018B01C42FD22F6034710510F40E943A
:101A00006109B8016D0F711D615071096034710574
:101A100020F44C2FC7010E9461094D2FB801C70166
:101A20000E94C80CC7018C0F911D4D2FB801019762
:101A3000DF91CF911F910F91FF90EF900C94C80C04
:101A40008F929F92AF92BF92CF92DF92EF92FF92CE
:101A50000F931F93CF93DF936D3089F0C090FD01FA
:101A6000D090FE016A30D1F41092FC011092FB017B
:101A700088E0C80ED11CD092FE01C092FD0181E029
:101A800090E0DF91CF911F910F91FF90EF90DF9049
:101A9000CF90BF90AF909F908F9008950091FB01E1
:101AA0001091FC01E5E06E9FE0011124C455DF4F69
:101AB0005801F12CF5E0E12CFF1629F0CE0101963A
:101AC000FE01E490EC01912C812CF0E8AF16B104FA
:101AD00058F4B601680D791D6034710528F44E2D57
:101AE0004170C5010E94B20CE6948FEF881A980AE3
:101AF000E8E08E16910449F7F394FFEFAF1ABF0A9E
:101B000086E0F812D7CF0A5F1F4F1093FC010093B5
:101B1000FB01B5CF9091FF01982329F49091000229
:101B2000982381E009F480E00895CF93C82F0E94A4
:101B3000A40C982F9C2381E09C1380E0CF91089502
:101B400080E00C949809089590E080E008958F92C9
:101B50009F92AF92BF920F931F93CF93DF93CDB716
:101B6000DEB7A1970FB6F894DEBF0FBECDBF19A2A6
:101B7000423008F44AE08E010F5D1F4F842E912CF5
:101B8000B12CA12CA50194010E94B418E62FB90133
:101B9000CA01EA3044F5E05DD801EE938D01232BB4
:101BA000242B252B79F790E080E0109769F0FD0158
:101BB00001900020E9F73197AF014A1B5B0BBD0193
:101BC00083E896E00E94B80BA1960FB6F894DEBFAA
:101BD0000FBECDBFDF91CF911F910F91BF90AF90FE
:101BE0009F908F900895E95CD7CFCF92DF92EF92CC
:101BF000FF92CF93DF936B017C016DE283E896E067
:101C00000E94200DEC0166277727CB016C197D0916
:101C10008E099F094AE00E94A70D8C0F9D1FDF913E
:101C2000CF91FF90EF90DF90CF900895CF93DF9307
:101C3000FC01448155816081718183E896E00E94B6
:101C4000B80BEC0142E050E060E471E083E896E01C
:101C50000E94B80B8C0F9D1FDF91CF910895BC019E
:101C6000990F880B990B97FD0C94F50D4AE00C9495
:101C7000A70D0F931F93CF93DF93EC018881998178
:101C8000009759F02A813B812617370730F081E011
:101C9000DF91CF911F910F9108958B016F5F7F4F5F
:101CA0000E94441A009759F0998388831B830A8302
:101CB0002C813D81232B59F7FC011082E8CF80E075
:101CC000E7CF1F920F920FB60F9211248F939F931D
:101CD0008091E1009091E100937F9093E10083FF78
:101CE0000FC01092E90091E09093EB001092EC008D
:101CF00092E39093ED001092220298E09093F0000E
:101D000082FF22C093E09093E9009091F200992322
:101D100019F09AE39093E80090911302992341F00F
:101D200090911302915090931302911101C05D9A0A
:101D300090912102992341F090912102915090932A
:101D40002102911101C0289A84FF18C08091E200FD
:101D50008E7E81608093E2008091E1008F7E80938F
:101D6000E100809114028E7E8061809314029F9125
:101D70008F910F900FBE0F901F90189580FFF7CF97
:101D80008091E2008E7E80618093E2008091E1008C
:101D90008E7E8093E100809114028E7E8160E5CF7B
:101DA0001F920F920FB60F921124CF92DF92EF92F3
:101DB000FF920F931F932F933F934F935F936F93D4
:101DC0007F938F939F93AF93BF93EF93FF93CF93A3
:101DD000DF93CDB7DEB76C97DEBFCDBF1092E900C1
:101DE0008091E80083FF25C068E0CE0145960E94FF
:101DF000FC0A82EF8093E8008D8987FF39C09091BB
:101E0000E80090FFFCCF982F907609F034C19E89AE
:101E10004F89588D2F89F88C911131C0803861F528
:101E2000809112028093F1001092F1008EEF809366
:101E3000E8006C960FB6F894DEBF0FBECDBFDF9101
:101E4000CF91FF91EF91BF91AF919F918F917F9132
:101E50006F915F914F913F912F911F910F91FF9043
:101E6000EF90DF90CF900F900FBE0F901F901895BE
:101E70009EEF9093E800C7CF1092F100D5CF91303C
:101E800059F48111D3CF4130510581F6809112026E
:101E90008D7F80931202CACF933049F48111C6CF4F
:101EA0004130510519F6809112028260F2CF9530CF
:101EB00041F48091E80080FFFCCF20682093E3008C
:101EC000B5CF963009F0A9C00B8D1C8D22E0109281
:101ED000E9001092100210920F02F2122EC010921E
:101EE0000E0210920D020E94CB0A1F8299E0998384
:101EF000FA8291E09E8390EA98879AEF99872091E1
:101F00000F0230911002275F3F4F3C832B838D835C
:101F10001092E9001092100210920F0210930E021C
:101F200000930D0249E050E0BE016F5F7F4F80E0FB
:101F30000E94A50A0E94CB0A79CF10930E0200934B
:101F40000D020E94E209DC0112960D911C9101150F
:101F5000110509F451C1D801ED91FC910480F5817E
:101F6000E02DBE016B5E7F4FC8010995009709F017
:101F70003EC1F80100851185EACFF3E0FF120EC0E3
:101F80008F89882309F440C0823061F440E867E01B
:101F90008DEE90E10E949311811148CF81E28093F0
:101FA000EB0047CF813029F440E86BE081EE90E10F
:101FB000F1CF833099F70E94E209DC011296ED908F
:101FC000FC908E010F5F1F4F6801E114F10479F05E
:101FD000D701ED91FC910680F781E02DB801C70192
:101FE0000995080F111DF701E084F184EECFD801A7
:101FF0001C92F60101900020E9F73197BF016C199E
:102000007D0940E0C601C6CF6BEC70E1FB01449155
:1020100050E080E80E94A50A09CF973009F4BECFAE
:10202000983021F481E08093F10000CF993009F0DD
:10203000FDCE837009F0B2CFECE1F1E081E031E058
:1020400096E32191222371F08093E9003093EB0015
:10205000DF0111972C912093EC009093ED008F5F9E
:10206000873079F78EE78093EA001092EA008F8933
:1020700080932202DBCE8B8D9C8D1092E900109212
:10208000100210920F0290930E0280930D02898D20
:10209000811192C08E899D89913A49F4813209F06B
:1020A0007DCF47E050E069E071E080E0B3CF91324E
:1020B00009F074CF833269F48F89988DB0E0A0E085
:1020C0008093050190930601A0930701B093080146
:1020D000ADCE803269F48091E80082FFFCCF67E0EA
:1020E00089E091E00E94FC0A8BEF8093E8009ECE8D
:1020F000823209F09BCE8F8980931001EEEFFFE7CB
:10210000859194918B3F9C4D51F1E0E0F8E08091F6
:10211000090190910A01A0910B01B0910C01803B43
:102120009440A105B105F1F48091100180FD1AC021
:10213000EE3F8AE0F80789F587E797E79183808388
:10214000809160008093110288E19BE00FB6F894C3
:10215000A895809360000FBE9093600067CEEEEF6D
:10216000FAE0D5CF808191818737974709F05ECE1D
:10217000A895809160008861809360008091110231
:1021800080936000EE3F2AE0F20789F08091FE0A1A
:102190009091FF0A9183808349CE80819181873716
:1021A000980751F29093FF0A8093FE0AC5CF1092D0
:1021B000FF0A1092FE0A3ACE0E94E209DC01129652
:1021C0000D911C910115110509F4E8CED801ED918E
:1021D000FC910190F081E02DBE016B5E7F4FC80144
:1021E0000995811123CEF80100851185EBCF1816D2
:1021F00019060CF41BCED2CEF1E0FF12BECE6FEC6E
:1022000070E104CF0F920FB68F939F93EF93FF93DC
:10221000809104028D5F8D3708F08D578093040202
:10222000E5E0F2E080818E4F808391819F4F918322
:1022300082818F4F828383818F4F8383E9E0F2E035
:1022400080818F5F808381818F4F818382818F4FD7
:10225000828383818F4F83838FB18F6066991C9BAC
:1022600088278F3681F480910302981B963068F09E
:10227000E0E0F8E087E78083818388E18093600075
:10228000F0936000FFCF90930302FF91EF919F9135
:102290008F910FBE0F9018951F920F920FB60F924D
:1022A00011242F933F934F935F936F937F938F935B
:1022B0009F93AF93BF93EF93FF93809163019091AE
:1022C0006401A0916501B09166010097A105B10577
:1022D00039F120916201211105C0369A20916101E6
:1022E0002111379A0197A109B109B7FD08C0809360
:1022F000630190936401A0936501B0936601FF911F
:10230000EF91BF91AF919F918F917F916F915F916D
:102310004F913F912F910F900FBE0F901F901895E6
:102320000E94F90BECCFEF92FF920F931F93CF9384
:10233000DF93F82E192FE62E042F81E0860F880FE9
:102340000E94770A83E00E94770ACF2DD12FEC0EEE
:10235000FD2EF11CCE15DF05B9F007FF13C0FE01FD
:1023600084910E94770A182F80E00E94770A8123C7
:1023700021968111EFCFDF91CF911F910F91FF90A7
:10238000EF9008958881EDCF81E0F5CFE3E2F6E0AC
:102390001382128288EE93E0A0E0B0E084839583FC
:1023A000A683B78386E291E0918380838FEF9FEFCE
:1023B00095878487E3E8F6E01382128288E391E050
:1023C0009183808386EA98E09093820680938106C9
:1023D00080E090E89093800680937F0646983E9A2E
:1023E00047983F9A0895CDB7DEB76197DEBFCDBF5E
:1023F000789483E084BD83E085BD81E080936E00A6
:10240000E1E8F0E083E08083E0E881E08083E1E9D7
:1024100083E08083E0E981E08083E1EC87E08083F2
:10242000E3EC81E08083E0EC82E08083E2EC81E019
:102430008083EAE787E080838068808310922202AD
:1024400010921202109214028091D7008160809342
:10245000D70080EA8093D80089B5806189BD89B5AD
:10246000826089BD09B400FEFDCF81E090E00E944A
:10247000090B8091D8008F7C80618093D800809177
:10248000E000807F8093E0008091E1008E7E809369
:10249000E1008DE08093E200559A209A81EC8093D0
:1024A0007C0081EF85B987EE84B984E38BB984EF32
:1024B0008AB9769A6E9880EF81BB10BA80E58CBDA0
:1024C00081E08DBD85E00E94A10C5F9A85E00E94AD
:1024D000A10C5C98ECE5F6E085918EBD00000DB492
:1024E00007FEFDCFE936C1F75C9A81E8809364006E
:1024F00081E0809365000E94A00D80E80E94950D08
:102500008823A9F05C9885EA8EBD00000DB407FE13
:10251000FDCF5C9A2E982F982D9880916400806250
:102520008093640081E083BF889513BEFCCF84E074
:102530000E94950D8823B9F12D9884E80E94950D8D
:102540008823A1F02D9A88EC0E94A10C2F986FEFA0
:1025500082E090E00E942B1884EF91E00E94090B2A
:102560002F9A84E80E94950D8111FBCF84E10E948F
:10257000950D8823A1F02D9A88EC0E94A10C2E982D
:1025800060E082E090E00E942B1884EF91E00E94CE
:10259000090B2E9A84E10E94950D8111FBCF88ECE6
:1025A0000E94A10CC4CF2D9A82E090E00E942318D3
:1025B0008823B1F10E94AC0C81E090E00E942318C6
:1025C000282F2470D22E81FF0BC021112E9801EFED
:1025D0001FEF80E40E94950D882339F12E9A2F9ADF
:1025E00082E30E94A10C0E94A40C8111F9CF80E12A
:1025F000809300010E94AC0C90E080E00E942318C0
:102600008093FA0140906A01442009F4AEC0109210
:102610006A01E0E0F0E0EF2BA9F30E940000F2CFA6
:10262000109267013E983F98C7CFDD2029F0043013
:10263000110511F42E9A2F9881E00E949809402FDD
:102640004770C42E980173E0359527957A95E1F788
:10265000C9019695982F8827979587958D5D9D4FF1
:1026600070E060E02E3FEFEF3E0781F17C01F4E97E
:10267000EF0EF11CDC0150E040E0FB01E455FA4FA5
:102680005F01F501E40FF51FE491F0E03F010C2C30
:1026900002C0660C771C0A94E2F72F3F320739F02C
:1026A00054969C905497962854969C925497CC207C
:1026B00021F0F7019080972890824F5F5F4FFFEFE6
:1026C000EF1AFF0A119648355105D9F62F5F3F4F93
:1026D00080589F4F685A7F4F603B710509F0C2CF09
:1026E0000E94A00D8FE00E94A10C0F5F1F4F0931C7
:1026F000110509F06ECFDD2011F02F9A2D9880E999
:1027000091E00E94090B2D9A81E090E00E9423182D
:1027100080FF66CF8AE090E00E9423189FEF980F19
:102720009E3F08F05DCF22E330E03093FC01209320
:10273000FB0128E330E03093FE012093FD010AE025
:1027400010E0682F83E896E00E94200D0F5F1F4F76
:10275000C8010E9423180031110599F70E94A00DAD
:1027600088EE93E00E94090B3BCF90910502809187
:102770006B01292F281B822F20910001821748F41A
:102780008F5F821708F045CF81E083BF889513BE25
:1027900040CF81E080936A0190936B01E8E6F1E01D
:1027A000808191810196808391838091020290E0E3
:1027B00001966FEF70E00E94F118182F80930202CB
:1027C000E0900002E092FF010E94A40CF82E80939A
:1027D0000002942DE3E2F2E091119FEF8FEF9193CD
:1027E0009193919391938150D0F71092FE011092A2
:1027F000FD011092FC011092FB01809101028130D9
:1028000009F4EDC030F0823009F4FEC20E94A00D40
:1028100000CF47E85CE070E060E090E080E00E947C
:10282000A9088091FA0118160CF0D0C0113808F4EC
:10283000CDC01A8219821C821B821E821D826AE010
:1028400070E0CE0101960E94390E29813A818111F2
:10285000B3C02115310519F0C9010E94BB191A82B4
:1028600019821E821D821C821B822D813E8146E0C0
:10287000429FC001439F900D112497FD01969595AD
:102880008795919581959109805C9F4F9093FC016C
:102890008093FB018AE090E09093FE018093FD011C
:1028A000CE0101960E94160E89819A81009711F03F
:1028B0000E94BB1987E390E09093FC018093FB0199
:1028C00084E190E09093FE018093FD018091FA01F4
:1028D000082E000C990B0E942F0E8091020264E6D4
:1028E0000E94E518933340F04BEE5AE063E370E04A
:1028F00081E790E00E94A90888E00E94950D882356
:1029000009F484CF81E080930102809164008E7F7E
:102910008093640080917A00806480937A00809133
:102920007A0086FDFCCF00917800109179000E941A
:10293000A00B30E020E0980111270027600F711FE5
:10294000821F931F20916400216020936400611511
:1029500071058105910511F00E941A1838E7E32EE0
:1029600031E0F32E4DE0B42E10E000E00E94CB17D2
:102970006801CC0CDD1CCE0CDF1C29E030E040E00F
:1029800050E00E944B186F5F7F4F8F4F9F4FF601B3
:10299000718360830F5F1F4F0530110539F7BA94BB
:1029A000FAE0EF0EF11CB110DFCF8AE7809304014B
:1029B00088E1809303012ACF8AE090E09E838D8393
:1029C00063E471E0C9010E940A1B4FCF45EF5AE052
:1029D0006AE070E08EE090E00E94A9087ECF46ECAD
:1029E0005AE062E070E086E090E00E94A90841EAC7
:1029F0005AE062E070E084E790E00E94A90840910C
:102A0000750110910201842F411708F0812F1417CE
:102A100008F4142F9091740100910101592E901720
:102A200008F0502E091708F4092F282E880F3308B4
:102A3000E3FE3DC0F3FC3BC0809177018A30B9F5DD
:102A4000812F012E000C990B8219930997FF03C067
:102A50009195819591090196202F002E000C330B42
:102A60002519310957FC339537FF03C0319521955E
:102A70003109289F800D112490917601890F809350
:102A80007601809171008D7F8093710081E0809349
:102A9000700183E89AE090936F0180936E019093A8
:102AA0006D0180936C010E94F90B44244394A8E7C4
:102AB0006A2EA1E07A2EBBE0AB2EB12CF12CE12CDA
:102AC0001F82E12F012E000CFF0BFD87EC87852D67
:102AD000052C000C990B9F878E87E02F002E000C91
:102AE000FF0BF98BE88BC50102969B878A87798655
:102AF0006886F2E08F2E912CD12CC12C2BE049E07E
:102B0000B401C5010E94F20CE885F98561917191CB
:102B1000F987E88761157105A1F08A859B859093F7
:102B2000FC018093FB01C40102969093FE01809307
:102B3000FD01072E000C880B990B97FF61C00E94C6
:102B4000F50DE214F304D4F0EC85FD85EE15FF05D8
:102B5000ACF08E859F85C816D90684F0E889F9897E
:102B6000EC15FD055CF0E885F985329780812F81B1
:102B7000280F2F83442011F0118210824FEFC41AC6
:102B8000D40A8AE0880E911C95E0C916D10409F098
:102B9000B5CFEFEFEE1AFE0AFAE06F0E711C28E0D7
:102BA000A20EB11C4DE0E416F10409F09CCF809117
:102BB000030164E10E94E5189B3030F1C09073017D
:102BC0008AE0C89E6001112492E0C90ED11CE090F9
:102BD0007201E8E0EE9E700111245701FBE0AF0E98
:102BE000B11C24E1E20EF11CEA14FB0469F04BE095
:102BF000B601C5010E94C80C4FEFA41AB40AF4CF65
:102C00004AE00E94A70D9DCF80917101882351F168
:102C1000802F000F990B8519910957FC93956AE055
:102C2000689F9001699F300D1124275F3F4F412F0E
:102C3000110F550B4219530973E0440F551F7A9534
:102C4000E1F7495F5F4F852D8602B00111246D5F6A
:102C50007F4FC101E3E0880F991FEA95E1F70C96D9
:102C60000E94F20C9F819093770126E04EE767E384
:102C700070E081E090E00E94F20C0091040110E00D
:102C800033E0E32EF12C0D5F1F4FE016F10654F4F4
:102C900042E069E370E0C7010E94C80CEFEFEE1A52
:102CA000FE0AF3CF8EE390E09093FC018093FB014A
:102CB00087E390E09093FE018093FD01809176017F
:102CC000082E000C990B0E942F0E80910301815059
:102CD00080930301811108C0809104018150809389
:102CE000040188E18093030180910401811118C0DF
:102CF00082E080930102809176019091FA01981709
:102D000014F48093FA011091FA0190E080E00E949F
:102D10002318181729F0612F90E080E00E943D18D9
:102D200088E00E948A0D882311F180917101811140
:102D30001EC091E090937101809171008D7F80930E
:102D4000710090937001E5E7FAE0F0936F01E09372
:102D50006E01F0936D01E0936C010E94F90B80917C
:102D6000720180937501809173018093740188E0F2
:102D70000E94950D882341F0809172018093020199
:102D800080917301809301018091FF0183FF09C04D
:102D90008091000283FD05C0809171018111109224
:102DA000710180E40E948A0D882339F080917201BC
:102DB0008C3018F48F5F8093720180E20E948A0D3C
:102DC000882339F080917201882319F08150809313
:102DD000720180E10E948A0D882339F0809173018D
:102DE000843018F48F5F8093730180E80E948A0D0D
:102DF000882309F40BCD80917301882309F406CD53
:102E000081508093730102CD43E756E061E070E0AA
:102E100081E090E00E94A908133340F049E656E0B3
:102E200063E370E081E790E00E94A9081A821982AA
:102E30001C821B821E821D826FE070E0CE01019613
:102E40000E94390E29813A8181114FC02115310527
:102E500019F0C9010E94BB191A8219821E821D82B3
:102E60001C821B822D813E8146E0429FC001439F10
:102E7000900D112497FD01969595879591958195D3
:102E80009109805C9F4F9093FC018093FB0183E24A
:102E900090E09093FE018093FD01CE0101960E9487
:102EA000160E89819A81009711F00E94BB19E0E407
:102EB000F0E0F093FC01E093FB018DE290E0909351
:102EC000FE018093FD0180917601082E000C990B84
:102ED0000E942F0E84E00E94950D882309F496CC61
:102EE000109201021092760191CC8FE090E09E83C7
:102EF0008D836EE471E0C9010E940A1BB3CF8F92EB
:102F00009F92AF92BF92CF92DF92EF92FF92CF93B8
:102F1000DF93EC01688179818A819B81611571055C
:102F20008105910521F464E279ED8BE597E02DE1CF
:102F300033EF41E050E00E944B1849015A019B01D8
:102F4000AC01A7EAB1E40E946A186B017C01ACEE07
:102F5000B4EFA50194010E947818C60ED71EE81E92
:102F6000F91EF7FE06C081E0C81AD108E10880E822
:102F7000F80AC882D982EA82FB82C701B6019F772C
:102F8000DF91CF91FF90EF90DF90CF90BF90AF9007
:102F90009F908F9008958F929F92AF92BF92CF9201
:102FA000DF92EF92FF926091110170911201809176
:102FB000130190911401611571058105910521F4AA
:102FC00064E279ED8BE597E02DE133EF41E050E0ED
:102FD0000E944B1849015A019B01AC01A7EAB1E4D8
:102FE0000E946A186B017C01ACEEB4EFA50194015C
:102FF0000E947818C60ED71EE81EF91EF7FE06C0FE
:1030000081E0C81AD108E10880E8F80AC0921101ED
:10301000D0921201E0921301F0921401C701B6019F
:103020009F77FF90EF90DF90CF90BF90AF909F90F1
:103030008F90089560931101709312018093130192
:10304000909314010895F999FECF92BD81BDF89A2D
:10305000992780B50895262FF999FECF92BD81BD9D
:10306000F89A019700B4021639F01FBA20BD0FB6C6
:10307000F894FA9AF99A0FBE0895262FF999FECF7F
:103080001FBA92BD81BD20BD0FB6F894FA9AF99A85
:103090000FBE01960895052E97FB1EF400940E9422
:1030A000621857FD07D00E94B41807FC03D04EF4F5
:1030B0000C94621850954095309521953F4F4F4F95
:1030C0005F4F089590958095709561957F4F8F4FD4
:1030D0009F4F08950E94D618A59F900DB49F900D04
:1030E000A49F800D911D11240895B7FF0C946A18B8
:1030F0000E946A18821B930B08952F923F924F9261
:103100005F926F927F928F929F92AF92BF92CF9277
:10311000DF92EF92FF920F931F93CF93DF93CDB780
:10312000DEB7CA1BDB0B0FB6F894DEBF0FBECDBFF8
:1031300009942A88398848885F846E847D848C84C9
:103140009B84AA84B984C884DF80EE80FD800C81D2
:103150001B81AA81B981CE0FD11D0FB6F894DEBFB5
:103160000FBECDBFED010895A1E21A2EAA1BBB1B15
:10317000FD010DC0AA1FBB1FEE1FFF1FA217B30743
:10318000E407F50720F0A21BB30BE40BF50B661F59
:10319000771F881F991F1A9469F76095709580951D
:1031A00090959B01AC01BD01CF010895A29FB00194
:1031B000B39FC001A39F700D811D1124911DB29F6B
:1031C000700D811D1124911D0895991B79E004C093
:1031D000991F961708F0961B881F7A95C9F7809556
:1031E000089597FB072E16F4009407D077FD09D0B9
:1031F0000E94051907FC05D03EF4909581959F4FDC
:103200000895709561957F4F0895AA1BBB1B51E1EE
:1032100007C0AA1FBB1FA617B70710F0A61BB70B46
:10322000881F991F5A95A9F780959095BC01CD01EB
:103230000895EE0FFF1F0590F491E02D09940F9370
:103240001F93CF93DF938230910510F482E090E0DA
:10325000E0918906F0918A0630E020E0B0E0A0E03D
:10326000309799F42115310509F44AC0281B390B10
:1032700024303105D8F58A819B816115710589F16A
:10328000FB0193838283FE0111C040815181028141
:10329000138148175907E0F04817590799F4109718
:1032A00061F012960C93129713961C933296CF01ED
:1032B000DF91CF911F910F9108950093890610938C
:1032C0008A06F4CF2115310551F04217530738F023
:1032D000A901DB019A01BD01DF01F801C1CFEF01B6
:1032E000F9CF90938A0680938906CDCFFE01E20F35
:1032F000F31F819391932250310939832883D7CFCB
:103300002091870630918806232B41F420911701E4
:10331000309118013093880620938706209115017B
:10332000309116012115310541F42DB73EB740917A
:10333000190150911A01241B350BE0918706F09179
:103340008806E217F307A0F42E1B3F0B2817390756
:1033500078F0AC014E5F5F4F2417350748F04E0FF1
:103360005F1F5093880640938706819391939FCF68
:10337000F0E0E0E09CCFCF93DF930097E9F0FC0111
:10338000329713821282A0918906B0918A06ED01CC
:1033900030E020E01097A1F420813181820F931F4B
:1033A00020918706309188062817390709F061C0F7
:1033B000F0938806E0938706DF91CF910895EA01A4
:1033C000CE17DF07E8F54A815B819E014115510563
:1033D000B1F7E901FB83EA8349915991C40FD51FE5
:1033E000EC17FD0761F4808191810296840F951F8F
:1033F000E90199838883828193819B838A83F0E0AA
:10340000E0E012968D919C9113970097B9F52D915C
:103410003C911197CD010296820F931F2091870650
:10342000309188062817390739F6309751F51092F0
:103430008A0610928906B0938806A0938706BCCFAF
:10344000D383C28340815181840F951FC817D90748
:1034500061F44E5F5F4F88819981480F591F5183F6
:1034600040838A819B81938382832115310509F0F2
:10347000B0CFF0938A06E09389069ECFFD01DC0170
:10348000C0CF13821282D7CFB0E0A0E0EAE4FAE125
:103490000C947F188C01009751F4CB010E941F19E6
:1034A0008C01C801CDB7DEB7E0E10C949B18FC019C
:1034B000E60FF71F9C0122503109E217F30708F4C9
:1034C0009DC0D901CD91DC911197C617D70798F00F
:1034D000C530D10530F3CE0104978617970708F35E
:1034E000C61BD70B2297C193D1936D937C93CF01C9
:1034F0000E94BB19D6CF5B01AC1ABD0A4C018C0EE1
:103500009D1EA0918906B0918A06512C412CF12C68
:10351000E12C109731F580918706909188068815E7
:10352000990509F05CC04616570608F058C080910E
:10353000150190911601009741F48DB79EB7409107
:10354000190150911A01841B950BE817F90708F02F
:1035500055C0F0938806E0938706F9017183608374
:10356000A0CF8D919C91119712966C901297139603
:103570007C901397A815B90559F56C0142E0C40E6B
:10358000D11CCA14DB0420F1AC014A195B09DA0131
:103590001296159780F06282738251834083D9011D
:1035A0006D937C93E114F10471F0D7011396FC93B1
:1035B000EE93129776CF22968C0F9D1FF90191837F
:1035C0008083F301EFCFF0938A06E093890669CFF9
:1035D0004816590608F42C017D01D3019ACFCB017E
:1035E0000E941F197C01009749F0AE01B8010E94AA
:1035F000011BC8010E94BB19870153CF10E000E0F6
:1036000050CFFB01DC0102C001900D9241505040AF
:10361000D8F70895FB01DC0101900D920020E1F73D
:063620000895F894FFCFAD
:103626001001010C0CFFFFFFFF00E100000000008D
:10363600000100000000008B06800000C1808100B0
:10364600000000000000F6091D0B170A0C0A5D0AAF
:103656001B0A390A00000000200DB80BA40DA30DAB
:103666000D0A004869676873636F72653A00596F9F
:0E36760075722053636F7265207761733A009E
:00000001FF
