:100000000C94A1070C94C9070C94C9070C94C90758
:100010000C94C9070C94C9070C94C9070C94C90720
:100020000C94C9070C94C9070C946F0D0C94DE0D49
:100030000C94C9070C94C9070C94C9070C94C90700
:100040000C94C9070C94C9070C94C9070C94C907F0
:100050000C94C9070C94C9070C94C9070C94101090
:100060000C94C9070C94C9070C94C9070C94C907D0
:100070000C94C9070C94C9070C94C9070C94C907C0
:100080000C94C9070C94C9070C94C9070C94C907B0
:100090000C94C9070C94C9070C94C9070C94C907A0
:1000A0000C94C9070C94C9070C94C9070000000000
:1000B000003E5B4F5B3E3E6B4F6B3E1C3E7C3E1CEE
:1000C000183C7E3C181C577D571C1C5E7F5E1C0034
:1000D000183C1800FFE7C3E7FF0018241800FFE7EB
:1000E000DBE7FF30483A060E2629792926407F05AE
:1000F0000507407F05253F5A3CE73C5A7F3E1C1CC4
:1001000008081C1C3E7F14227F22145F5F005F5F83
:1001100006097F017F006689956A6060606060946F
:10012000A2FFA29408047E040810207E2010080874
:100130002A1C08081C2A08081E101010100C1E0C7F
:100140001E0C30383E3830060E3E0E060000000011
:100150000000005F00000007000700147F147F14F8
:10016000242A7F2A1223130864623649562050003D
:1001700008070300001C2241000041221C002A1C29
:100180007F1C2A08083E0808008070300008080814
:100190000808000060600020100804023E51494534
:1001A0003E00427F400072494949462141494D3352
:1001B0001814127F1027454545393C4A49493141B9
:1001C000211109073649494936464949291E000087
:1001D00014000000403400000008142241141414DC
:1001E0001414004122140802015909063E415D59C8
:1001F0004E7C1211127C7F494949363E41414122D1
:100200007F4141413E7F494949417F090909013EFA
:10021000414151737F0808087F00417F4100204021
:10022000413F017F081422417F404040407F021C33
:10023000027F7F0408107F3E4141413E7F0909094A
:10024000063E4151215E7F09192946264949493216
:1002500003017F01033F4040403F1F2040201F3FDC
:100260004038403F63140814630304780403615961
:10027000494D43007F4141410204081020004141A3
:10028000417F04020102044040404040000307084F
:100290000020545478407F2844443838444444284B
:1002A000384444287F385454541800087E090218F2
:1002B000A4A49C787F0804047800447D400020407A
:1002C000403D007F1028440000417F40007C0478BE
:1002D00004787C080404783844444438FC18242406
:1002E0001818242418FC7C08040408485454542486
:1002F00004043F44243C4040207C1C2040201C3C03
:100300004030403C44281028444C9090907C4464F9
:10031000544C44000836410000007700000041368C
:10032000080002010204023C2623263C1EA1A16112
:10033000123A4040207A3854545559215555794144
:100340002154547841215554784020545579400C1B
:100350001E527212395555555939545454593955FC
:100360005454580000457C410002457D420001453F
:100370007C40F0292429F0F0282528F07C545545AC
:10038000002054547C547C0A097F4932494949323F
:100390003248484832324A4848303A4141217A3A54
:1003A00042402078009DA0A07D39444444393D401E
:1003B00040403D3C24FF2424487E4943662B2FFCCB
:1003C0002F2BFF0929F620C0887E09032054547979
:1003D000410000447D413048484A32384040227A4A
:1003E000007A0A0A727D0D19317D2629292F2826C7
:1003F0002929292630484D402038080808080808CF
:100400000808382F10C8ACBA2F102834FA00007B27
:10041000000008142A142222142A1408950022002D
:1004200095AA005500AAAA55AA55AA000000FF00E7
:10043000101010FF00141414FF001010FF00FF1024
:1004400010F010F0141414FC001414F700FF000056
:10045000FF00FF1414F404FC141417101F10101FD5
:10046000101F1414141F00101010F0000000001FC3
:10047000101010101F10101010F010000000FF10CE
:100480001010101010101010FF10000000FF1400CA
:1004900000FF00FF00001F10170000FC04F41414FC
:1004A0001710171414F404F40000FF00F7141414C8
:1004B00014141414F700F7141414171410101F1048
:1004C0001F141414F4141010F010F000001F101F6B
:1004D0000000001F14000000FC140000F010F010D9
:1004E00010FF10FF141414FF141010101F00000050
:1004F00000F010FFFFFFFFFFF0F0F0F0F0FFFFFF54
:100500000000000000FFFF0F0F0F0F0F38444438AA
:10051000447C2A2A3E147E02020606027E027E02E5
:1005200063554941633844443C04407E201E200604
:10053000027E020299A5E7A5991C2A492A1C4C7241
:1005400001724C304A4D4D303048784830BC625AC8
:10055000463D3E494949007E0101017E2A2A2A2A58
:100560002A44445F444440514A444040444A514034
:100570000000FF0103E080FF000008086B6B0836F5
:1005800012362436060F090F060000181800000066
:100590001010003040FF0101001F01011E00191D55
:1005A0001712003C3C3C3C0000000000F0F89C8E20
:1005B0008783878E9CF8F00000FEFF03030303038C
:1005C000070EFCF80000FEFF0303030303070EFC05
:1005D000F80000FFFF00000000000000FFFF000027
:1005E000FEFF8383838383C7EE7C380000F8FC0E14
:1005F00007030303070EFCF800003F7FE0C0808084
:10060000C0E07F3FFFFF01010101010101FFFF0089
:1006100000FFFF0C0C0C0C1C3E77E3C100007FFFB9
:10062000C0C0C0C0C0E0703F1F00001F3F70E0C0EE
:10063000C0C0E0703F1F00007FFFC1C1C1C1C1E366
:10064000773E1C00001F3F70E0C0C0C0E0703F1F3D
:10065000000000000001FFFF01000000D5F08D1434
:10066000A1C881CFD9F1AF2000804001FC02FA0A75
:100670002A0A0A0A0A0A0A0A0A0A0A0A0A0A0A0ABA
:100680000A0A0A0A0A0A0A0A0A0A0A0A0A0A0A0ACA
:100690000A0A0A0A0A0A0A0A0A0A0A0A0A0A0A0ABA
:1006A0000A0A0A0A0A0A0A0A0A0A0A0A0A0A0A0AAA
:1006B0000A0A0A0A0A0A0A0A0A0A0A0A0A0A0A0A9A
:1006C0000A0A0A0A0A0A0A0A0A0A0A0A0A0A0A0A8A
:1006D0000A0A0A0A0A0A0A0A0A0A0A0A0A0A0A0A7A
:1006E0000A0A0A0A0A2A0AF202FC0100FF00FF00B5
:1006F00000000000000000000000000000000000FA
:1007000000000000000000000000000000000000E9
:1007100000000000000000000000000000000000D9
:1007200000000000000000000000000000000000C9
:1007300000000000000000000000000000000000B9
:1007400000000000000000000000000000000000A9
:100750000000000000000000000000000000000099
:1007600000000000000000FF00FF0000FF00FF008D
:100770000000000000000000000000000000000079
:100780000000000000000000000000000000000069
:100790000000000000000000000000000000000059
:1007A0000000000000000000000000000000000049
:1007B0000000000000000000000000000000000039
:1007C0000000000000000000000000000000000029
:1007D0000000000000000000000000000000000019
:1007E00000000000000000FF00FF0000FF00FF000D
:1007F00000000000000000C0F0F8F87C3C3CBCBCED
:1008000098800080E0F0F8FCFCFCF8F0E08000F854
:10081000FCFCFCF8F0F0F8FCFCFCF800F0F8F8FC4C
:10082000FCFCBCBC3C1800000000000000C0F0F85C
:10083000F8FCFCFCFCF8F8F0C000F8FCFCFCF8004C
:10084000F8FCFCFCF800F0F8F8FCFCFCBCBC3C1824
:100850000000E0F8FCFCFC3C3CFCF8F8F000000078
:1008600000000000000000FF00FF0000FF00FF008C
:1008700000000000000000030F1F1F3E3C3C1D3F16
:100880003F3F001F3F3F3F1918193F3F3F1F001FC9
:100890003F3F1F010303011F3F3F1F000F1F1F3F6B
:1008A0003F3F3D3D3C3C18000000000000030F1F8F
:1008B0001F3F3C3C3F1F1F0F030000030F1F3F3F24
:1008C0003F1F0F0300000F1F1F3F3F3F3D3D3C3CBC
:1008D00018001F3F3F3F1F0F1F3F3F3930000000F0
:1008E00000000000000000FF00FF0000FF00FF000C
:1008F00000000000000000000000000000000000F8
:1009000000000000000000000000000000000000E7
:1009100000000000000000000000000000000000D7
:1009200000000000000000000000000000000000C7
:1009300000000000000000000000000000000000B7
:1009400000000000000000000000000000000000A7
:100950000000000000000000000000000000000097
:1009600000000000000000FF00FF0000FF00FF008B
:100970000000000000000000000000000000000077
:100980000000000000000000000000000000000067
:100990000000000000000000000000000000000057
:1009A0000000000000000000000000000000000047
:1009B0000000000000000000000000000000000037
:1009C0000000000000000000000000000000000027
:1009D0000000000000000000000000000000000017
:1009E00000000000000000FF00FF00803F404F506B
:1009F00054505050505050505050505050505050F3
:100A000050505050505050505050505050505050E6
:100A100050505050505050505050505050505050D6
:100A200050505050505050505050505050505050C6
:100A300050505050505050505050505050505050B6
:100A400050505050505050505050505050505050A6
:100A50005050505050505050505050505050505096
:100A6000505050505054504F403F800808181824A0
:100A70003C5A7E667E5A5A5A5A1818000008081EB8
:100A80001E3F3F7F7FFEFEFEFE7F7F3F3F1E1E100C
:100A9000100000000000008080C4C4C4C44ECE4AD0
:100AA000CEEEEEDEFEDEFEDEFEBEFE4A7E3C3C000C
:100AB0000000000000000001012323232372735271
:100AC0007377777B7F7B7F7B7F5D7F527E3C3C00B3
:100AD00000804001FC02FA0A2A0A0A0A0A0A0A0AE3
:100AE0000A8ACACACACACACACACACA8A0A8ACACAA6
:100AF000CA8A0A8ACACACA8A0A0A8A8ACACACACAD6
:100B0000CACA8A0A0A0A0A0A0A0A0A0A8A8ACACAC5
:100B1000CACA8A8A0A0A0A0A8A8ACACACACA8A8AB5
:100B20000A0A0A8ACACACA8A0A8ACACACA8A0A8A25
:100B3000CACA8A0A0A0A8ACACA8A0A8ACACACACA15
:100B4000CACACACACA8A0A0A0A0A0A0A0A2A0AFAB5
:100B500002FC0100FF00FF00000000000000000098
:100B600000010303FFFFFFFFFF03030100FFFFFF7F
:100B7000FFFF3CFFFFFFFFFF00FFFFFFFFFFFFDB6B
:100B8000DBC3C1800000000000003CFFFFFFE7C3A3
:100B9000C3C3E7E7E7003CFFFFFFFFCFCFFFFFFF47
:100BA000FF3C007FFFFFFFFFC0FFFFFFFF7F00FF55
:100BB000FFFFFF0F1E7CFFFFFFFF00010303FFFF8E
:100BC000FFFFFF030301000000000000000000FF22
:100BD00000FF0000FF00FF00000000000000000018
:100BE00000000000010303030100000000010303F3
:100BF00003010001030303010000010103030303D8
:100C00000303030100000080E0F0F0F0E181030342
:100C1000C3E3E1F1F0F0F0F061010303030301012C
:100C200000000000010303030303030301000001AC
:100C300003030100000001030301000000000103A1
:100C4000030301000000000000000000000000FF9E
:100C500000FF0000FF00FF00000000000000000097
:100C60000000000000000000000000000000000084
:100C70000000000000000000000000000000000074
:100C8000000000000000001F7FFFFFFF7F1F00002B
:100C900063F7F7F7F6FEFE7C7C38000000000000EA
:100CA0000000000000000000000000000000000044
:100CB0000000000000000000000000000000000034
:100CC000000000000000000000000000000000FF25
:100CD00000FF0000FF00FF00000000000000000017
:100CE000000000000000F0F8F8FCFCFCBCBC3C1864
:100CF0000000F8FCFCF8F0E0C0F8FCFCF800E0F8BC
:100D0000FCFCFC3C3CFCF8F8F00080E0F0F8FCFC5B
:100D1000FCF8F0E08000C0F0F8F87C3C3CBCBC98EB
:100D20008000F0F8F8FCFCFCBCBC3C180000F8FCAF
:100D3000FCFCFCFCFCF8F8F0C000000000F8FCFC37
:100D4000F80000000000000000000000000000FFAC
:100D500000FF0000FF00FF00000000000000000096
:100D60000000000000000F1F1F3F3F3F3D3D3C3C87
:100D700018001F3F3F1F0001071F3F3F1F001F3F7D
:100D80003F3F1F0F1F3F3F3930001F3F3F3F1918A4
:100D9000193F3F3F1F00030F1F1F3E3C3C1D3F3FBD
:100DA0003F000F1F1F3F3F3F3D3D3C3C18001F3F92
:100DB0003F3F3F3C3C1F1F0F0300000000183D3D1C
:100DC000180000000000000000000000000000FF0C
:100DD00000FF0000FF00FF00000000000000000016
:100DE0000000000000000000000000000000000003
:100DF000F828281000F828689000F8A8A888009023
:100E0000A8A8480090A8A848000000000000F0280A
:100E100028F000000000000008F8080070888870C2
:100E2000000000000000F828281000F880808000F2
:100E3000F02828F00018E018000000000000000072
:100E4000000000000000000000000000000000FFA3
:100E500000FF00803F405F50545050505050505061
:100E60005050505050505050505050505050505082
:100E70005050505050505050505050505050505072
:100E80005050505050505050505050505050505062
:100E90005050505050505050505050505050505052
:100EA0005050505050505050505050505050505042
:100EB0005050505050505050505050505050505032
:100EC0005050505050505050505050505054505F0F
:100ED000403F80080B0002020200000904000001EC
:100EE0000202000005240010010524010101042470
:100EF00002060524060001070581031000400904CD
:100F00000100020A00000007050202400000070578
:100F100083024000000403090412010002EF0201F1
:100F2000404123368000010102030141726475696A
:100F30006E6F204C4C430041726475626F79000003
:100F40008D1011241FBECFEFDAE0DEBFCDBF12E05F
:100F5000A0E0B1E0ECEAF3E302C005900D92A63BFD
:100F6000B107D9F727E0A6EBB2E001C01D92A83582
:100F7000B207E1F717E0C1EAD7E004C02197FE010C
:100F80000E94CE19C03AD107C9F70E9415110C94DE
:100F9000D4190C9400002091400730914107243F60
:100FA0003140E1F020914C0730914D07243F314012
:100FB000A1F421E030E04CE0429FF001439FF00DAE
:100FC0001124E45CF84F9583848380E090E0A0E8EE
:100FD000B1EC80839183A283B383089530E020E055
:100FE000EACFECEEF2E0A0E0B8E000800EBC8111A8
:100FF000012C1197A0FDFDCF0192B9F70DB4089512
:10100000FC018091EB02882311F13FB7F89482E054
:101010008093E9002091F200822F90E018161906C3
:1010200014F481E090E0882339F0289844E6409356
:10103000EA024091F1004083222339F02091F2002E
:10104000211103C02BE62093E8003FBF08958FEFE6
:101050009FEF08952FB7F89483E08093E900909173
:10106000E800892F807295FF04C09091F20080E41F
:10107000891B2FBF08958091E20281110DC082E08B
:101080008093DE0284E08093DF021092E1021092EE
:10109000E00281E08093E2028EED92E00895CF932A
:1010A000DF931F92CDB7DEB76983DC01ED91FC9130
:1010B0000280F381E02D41E050E0BE016F5F7F4F81
:1010C00009950F90DF91CF91089583E08093E90017
:1010D0008091F200882319F08AE38093E800089554
:1010E0000E942A0890E00895CF93DF931F92CDB716
:1010F000DEB7FC018485958597FD08C02FEF3FEF93
:10110000358724870F90DF91CF910895CE01019606
:101110000E940008019719F4898190E0F3CF8FEFC6
:101120009FEFF0CF0F931F93CF93DF931F92CDB715
:10113000DEB78C01FC018485958597FF0BC0CE013D
:1011400001960E940008019771F4898190E0F801EE
:1011500095878487F801848595850F90DF91CF91DD
:101160001F910F9108958FEF9FEFF1CFFC018485C0
:10117000958597FD0BC09FB7F89482E08093E900B6
:101180008091F2009FBF90E0019608959FB7F89478
:1011900082E08093E9008091F2009FBF90E0089583
:1011A0004091D8025091D9022091D6023091D702B5
:1011B00042175307B4F49091E8009570E1F39091D1
:1011C000E80092FD19C08093F1008091D8029091BF
:1011D000D90201968F739927892B19F48EEF80938A
:1011E000E8008091D8029091D90201969093D9029B
:1011F0008093D80281E0089580E00895DF92EF9215
:10120000FF920F931F93CF93DF93D82E8A01EB01A8
:101210007B01E40EF51ECE15DF0559F0D7FE12C096
:10122000FE0184910E94D00821968111F4CF0FEF26
:101230001FEFC801DF91CF911F910F91FF90EF90A9
:10124000DF9008958881EECF0F931F93CF93DF93A4
:101250001F92CDB7DEB782E0898342E450E063EDB0
:101260007EE080E80E94FE080E943B08DC011296A6
:101270000D911C910115110589F0D801ED91FC919A
:101280000280F381E02DBE016F5F7F4FC801099599
:1012900097FD04C0F80100851185ECCF89810F907E
:1012A000DF91CF911F910F910895615030F02091FF
:1012B000F100FC0120830196F8CF289884E6809302
:1012C000EA020895FC010E94F909319728F068515B
:1012D0007C4F8F4F9F4FF9CFAB01FC010E94F90962
:1012E000641775078E079F07C8F308958F929F9222
:1012F000AF92BF92CF92DF92EF92FF920F931F9324
:10130000CF93DF936C017B018A0180918C0288234B
:1013100009F45AC08091EB02882309F455C08091EA
:10132000DD0280FF05C08091E00082608093E000D4
:10133000E801B12C8AEFA82E93E0892E2AE3922EA1
:10134000209711F4BB20C9F10E942A08811108C01E
:10135000AA94AA20C9F181E090E00E946209F0CF2E
:101360008C171D0611F00CF08C2F9FB7F89480920B
:10137000E9002091E80025FD02C09FBFE1CF282FA2
:1013800030E0C21BD30BF701815020F04191409314
:10139000F100FACFE20EF31EBB2021F09092E8009C
:1013A000B12CEBCF8091E80085FDE7CF9092E8006B
:1013B000BB24B394209709F3F3CF5D9884E6809320
:1013C000DC02101611063CF081E090E0F6019383F8
:1013D000828310E000E0C801DF91CF911F910F914F
:1013E000FF90EF90DF90CF90BF90AF909F908F9045
:1013F0000895A2EDB2E02FB7F8947D918D919C9164
:1014000066B52FBFA89B05C06F3F18F47F5F8F4F55
:101410009F4F22E0660F771F881F991F2A95D1F7EB
:101420000895AF92BF92CF92DF92EF92FF920F9307
:101430001F93CF93DF936C017B018B01040F151F6A
:10144000EB015E01AE18BF08C017D10759F06991D2
:10145000D601ED91FC910190F081E02DC601099536
:10146000892B79F7C501DF91CF911F910F91FF90E3
:10147000EF90DF90CF90BF90AF9008954F925F9222
:101480006F927F928F929F92AF92BF92CF92DF9294
:10149000EF92FF920F931F93CF93DF934C0159016B
:1014A000FC2DC02FD0E0CE01880D991D181619060D
:1014B0000CF06CC020E8821691040CF067C09B0110
:1014C0002E0D311D121613060CF060C0603471052C
:1014D0000CF05CC04115510509F458C0E62FE770C7
:1014E000FE2EDB0177FD179633E0B595A7953A956B
:1014F000E1F73A2F77FF04C0FF2011F03FEF3A0FDA
:10150000662777276819790997FC02C070E060E0C8
:10151000803891050CF44BC090E89819961BA32FC6
:10152000032E000CBB0B1A2F10953F3F0CF010E060
:1015300021E08E2D877009F420E0E694E694E6948D
:10154000E20EAE0DB11D19971CF028E0E22EE31A51
:10155000E11A310F20E83203D0011124A80DB91D82
:10156000A60FB71F019F600D711D1124460F571F55
:101570000F2D0F2C000C110BF33009F41CC1C8F413
:10158000F13009F4D0C0F23009F47CC0DF91CF9182
:101590001F910F91FF90EF90DF90CF90BF90AF9091
:1015A0009F908F907F906F905F904F900895902FB5
:1015B000B5CFFA3FB1F1232F2E0DFB3F39F732178C
:1015C00029F3BD0164517D4FD12CC12CC91608F0FF
:1015D000A4C0FA01EC0DFD1DE491F0E04F01002ED6
:1015E00002C0880C991C0A94E2F737FD06C0FB0183
:1015F0008081E82CE0948E218083FF2061F03730D9
:1016000054F45B01F0E8AF0EB11CE92CE094F50155
:1016100080818E218083FFEFCF1ADF0A6F5F7F4FBB
:10162000D5CF232F2E0D321709F4B0CFBD01645151
:101630007D4FD12CC12CC91608F069C0FA01EC0D00
:10164000FD1DE491F0E04F01002E02C0880C991CB2
:101650000A94E2F737FD04C0FB018081882980836A
:10166000FF2051F0373044F45B01F0E8AF0EB11CBD
:10167000F501808189298083FFEFCF1ADF0A6F5F30
:101680007F4FD9CF6FEF70E00F2C02C0660F771F2E
:101690000A94E2F760957095772E232F2E0D32175E
:1016A00009F474CFFD01E451FD4F6F01B12CA12C61
:1016B000A91638F5FA01EA0DFB1DE491F0E02F01BF
:1016C000002E02C0440C551C0A94E2F737FD05C0F9
:1016D000F6018081862384298083FF2059F03730EA
:1016E0004CF44601F0E88F0E911CF40180818721B3
:1016F00085298083FFEFAF1ABF0A8FEFC81AD80A77
:10170000D7CF3F5F4C0F5D1FA058BF4FC8CF3F5F83
:101710004C0F5D1FA058BF4F86CF3F5F4C0F5D1F22
:10172000A058BF4F4CCF6A0D7B1D232F2E0D3217B3
:1017300009F42CCFFD01E451FD4F6F01B12CA12C18
:10174000A91688F5FB01EA0DFB1D8490912C002E53
:1017500002C0880C991C0A94E2F780949094FA01D4
:10176000EA0DFB1D6490712C002E02C0660C771CE4
:101770000A94E2F737FD05C0F601808188218629A9
:101780008083FF2049F037303CF4F601E058FF4FEA
:101790008081892187298083FFEFAF1ABF0A8FEFED
:1017A000C81AD80ACDCF3F5F4C0F5D1F6C0F7D1F4D
:1017B000A058BF4FBCCFC92ED12CFA01E60FF71F9E
:1017C000A451BD4F00E810E00C191D09CC19DD092A
:1017D000BE01660F771F41E050E06A010F2C01C087
:1017E000CC0C0A94EAF7592F2E2D792ECF93DF9344
:1017F000ED01EF96EF9622968590A590FF2059F087
:101800008C9C4001AC9C500137302CF4E880B094A3
:10181000EB20E928E99233233AF0EC90A094EA20F7
:10182000E828ED920C94150C11965A9529F72A95F3
:1018300051F0572D33951124E60FF11DA00FB11D66
:10184000C00FD11DD9CFDF91CF9111249FCE90E051
:101850000C9462098FB18095807F669B88601C9B89
:1018600084600895480F592F511D4138510511F4D6
:1018700040E850E0481BFB0177FD379633E0F595D3
:10188000E7953A95E1F7F695FE2FEE27F795E79560
:10189000E80FF91FE451FD4F6770772781E090E072
:1018A00001C0880F6A95EAF7382F213041F4415082
:1018B00078F08191DF011197832B8C93F8CF80957D
:1018C000415030F09191DF01119798239C93F8CF0C
:1018D0000895CF93C82F0E942A0C982F9C2381E053
:1018E0009C1380E0CF91089580E00C94F10780383C
:1018F0009105B8F460347105A0F490E121E061FD38
:1019000024E060FD220F62FD2295687F969FD00142
:101910001124A80FA451BD4F0C90022A40FF0226AB
:101920000C9208958F929F92AF92BF92CF92DF92C6
:10193000EF92FF920F931F93CF93DF936D3089F057
:10194000C090C302D090C4026A30D1F41092C20297
:101950001092C10288E0C80ED11CD092C402C0927D
:10196000C30281E090E0DF91CF911F910F91FF9032
:10197000EF90DF90CF90BF90AF909F908F900895A1
:101980000091C1021091C202E5E06E9FE0011124B6
:10199000C455DF4F4801F12CF5E0E12CFF1629F08A
:1019A000CE010196FE01E490EC01B12CA12C4E2D4C
:1019B0004170B6016A0D7B1DC4010E94770CE6944C
:1019C000FFEFAF1ABF0A88E0A816B10481F7F394BD
:1019D000EFEF8E1A9E0AF6E0FF12DECF0A5F1F4F6E
:1019E0001093C2020093C102BCCFDF92EF92FF922C
:1019F0000F931F93CF93DF937C01D22E8B01040FA3
:101A0000111DEB0177FF02C0D0E0C0E0C801013436
:101A1000110514F080E490E0C817D9073CF44D2D6F
:101A2000BE01C7010E94770C2196F0CFDF91CF91C4
:101A30001F910F91FF90EF90DF900895CF92DF926A
:101A4000EF92FF920F93CF93DF936C017B01C42F32
:101A5000D22F202F0E94320CB7016D0F711D6150E3
:101A600071096034710529F0202F4C2FC6010E94A6
:101A7000320C202F4D2FB701C6010E94F50CC60174
:101A80008C0F911D202F4D2FB7010197DF91CF9122
:101A90000F91FF90EF90DF90CF900C94F50C82E3C4
:101AA00090E09093C0028093BF0282E08093C502D1
:101AB00080E48093900082E090E09093990080937E
:101AC000980080913D0190913E01019790933E01D5
:101AD00080933D010895089590E080E008951F925D
:101AE0000F920FB60F9211248F939F938091E10074
:101AF0009091E100937F9093E10083FF0FC01092DB
:101B0000E90091E09093EB001092EC0092E3909347
:101B1000ED001092EB0298E09093F00082FF22C05B
:101B200093E09093E9009091F200992319F09AE3E1
:101B30009093E8009091DC02992341F09091DC02AF
:101B400091509093DC02911101C05D9A9091EA024C
:101B5000992341F09091EA0291509093EA029111F9
:101B600001C0289A84FF18C08091E2008E7E8160B7
:101B70008093E2008091E1008F7E8093E10080916C
:101B8000DD028E7E80618093DD029F918F910F90A8
:101B90000FBE0F901F90189580FFF7CF8091E20045
:101BA0008E7E80618093E2008091E1008E7E809342
:101BB000E1008091DD028E7E8160E5CF1F920F9261
:101BC0000FB60F921124CF92DF92EF92FF920F93F4
:101BD0001F932F933F934F935F936F937F938F93B5
:101BE0009F93AF93BF93EF93FF93CF93DF93CDB7C3
:101BF000DEB76C97DEBFCDBF1092E9008091E800A0
:101C000083FF25C068E0CE0145960E94550982EF0A
:101C10008093E8008D8987FF39C09091E80090FF9C
:101C2000FCCF982F907609F034C19E894F89588D4A
:101C30002F89F88C911131C0803861F58091DB02D9
:101C40008093F1001092F1008EEF8093E8006C9683
:101C50000FB6F894DEBF0FBECDBFDF91CF91FF91DD
:101C6000EF91BF91AF919F918F917F916F915F9114
:101C70004F913F912F911F910F91FF90EF90DF9027
:101C8000CF900F900FBE0F901F9018959EEF9093DE
:101C9000E800C7CF1092F100D5CF913059F48111EF
:101CA000D3CF4130510581F68091DB028D7F809347
:101CB000DB02CACF933049F48111C6CF41305105C0
:101CC00019F68091DB028260F2CF953041F4809169
:101CD000E80080FFFCCF20682093E300B5CF96306A
:101CE00009F0A9C00B8D1C8D22E01092E900109222
:101CF000D9021092D802F2122EC01092D70210927E
:101D0000D6020E9424091F8299E09983FA8291E009
:101D10009E8390EA98879AEF99872091D802309114
:101D2000D902275F3F4F3C832B838D831092E900BC
:101D30001092D9021092D8021093D7020093D602C3
:101D400049E050E0BE016F5F7F4F80E00E94FE08D7
:101D50000E94240979CF1093D7020093D6020E94E3
:101D60003B08DC0112960D911C910115110509F437
:101D700051C1D801ED91FC910480F581E02DBE01A7
:101D80006B5E7F4FC8010995009709F03EC1F801CD
:101D900000851185EACFF3E0FF120EC08F898823FA
:101DA00009F440C0823061F440E867E087E39FE0D7
:101DB0000E945A10811148CF81E28093EB0047CFF7
:101DC000813029F440E86BE08BE29FE0F1CF833073
:101DD00099F70E943B08DC011296ED90FC908E0171
:101DE0000F5F1F4F6801E114F10479F0D701ED9105
:101DF000FC910680F781E02DB801C7010995080F15
:101E0000111DF701E084F184EECFD8011C92F60198
:101E100001900020E9F73197BF016C197D0940E07E
:101E2000C601C6CF65E17FE0FB01449150E080E848
:101E30000E94FE0809CF973009F4BECF983021F4F4
:101E400081E08093F10000CF993009F0FDCE8370DE
:101E500009F0B2CFE2E9F2E081E031E096E32191CE
:101E6000222371F08093E9003093EB00DF0111979A
:101E70002C912093EC009093ED008F5F873079F7E1
:101E80008EE78093EA001092EA008F898093EB023C
:101E9000DBCE8B8D9C8D1092E9001092D9021092AE
:101EA000D8029093D7028093D602898D811192C077
:101EB0008E899D89913A49F4813209F07DCF47E0BE
:101EC00050E065E872E080E0B3CF913209F074CF62
:101ED000833269F48F89988DB0E0A0E0809381020D
:101EE00090938202A0938302B0938402ADCE80329D
:101EF00069F48091E80082FFFCCF67E085E892E01A
:101F00000E9455098BEF8093E8009ECE823209F043
:101F10009BCE8F8980938C02EEEFFFE785919491A1
:101F20008B3F9C4D51F1E0E0F8E08091850290916B
:101F30008602A0918702B0918802803B9440A1055F
:101F4000B105F1F480918C0280FD1AC0EE3F8AE069
:101F5000F80789F587E797E7918380838091600090
:101F60008093DA0288E19BE00FB6F894A8958093FD
:101F700060000FBE9093600067CEEEEFFAE0D5CF21
:101F8000808191818737974709F05ECEA89580912F
:101F900060008861809360008091DA028093600025
:101FA000EE3F2AE0F20789F08091FE0A9091FF0A45
:101FB0009183808349CE808191818737980751F240
:101FC0009093FF0A8093FE0AC5CF1092FF0A1092E9
:101FD000FE0A3ACE0E943B08DC0112960D911C913C
:101FE0000115110509F4E8CED801ED91FC9101909D
:101FF000F081E02DBE016B5E7F4FC8010995811114
:1020000023CEF80100851185EBCF181619060CF4C4
:102010001BCED2CEF1E0FF12BECE69E17FE004CF4D
:102020000F920FB68F939F93EF93FF938091CD0202
:102030008D5F8D3708F08D578093CD02EEECF2E086
:1020400080818E4F808391819F4F918382818F4FBA
:10205000828383818F4F8383E2EDF2E080818F5F03
:10206000808381818F4F818382818F4F828383819F
:102070008F4F83838FB18F6066991C9B88278F3623
:1020800081F48091CC02981B963068F0E0E0F8E093
:1020900087E78083818388E180936000F09360000C
:1020A000FFCF9093CC02FF91EF919F918F910FBE44
:1020B0000F901895EF92FF920F931F93CF93DF939A
:1020C000F82E192FE62E042F81E0860F880F0E942C
:1020D000D00883E00E94D008CF2DD12FEC0EFD2E2A
:1020E000F11CCE15DF05B9F007FF13C0FE01849186
:1020F0000E94D008182F80E00E94D00881232196EA
:102100008111EFCFDF91CF911F910F91FF90EF9051
:1021100008958881EDCF81E0F5CF2F923F924F92C5
:102120005F926F927F928F929F92AF92BF92CF9267
:10213000DF92EF92FF920F931F93CF93DF93ECEE1A
:10214000F6E01382128288EE93E0A0E0B0E0848390
:102150009583A683B7838CE992E0918380838FEF88
:102160009FEF95878487E4E5F7E0138212828EEA79
:1021700092E091838083CCE3D7E0412C512C80E81E
:10218000682E81EC782E488259826A827B8204EF25
:1021900011E01D830C83812C912CA12C9FE3B92E7F
:1021A0008E829F82A886B98625E0222E312C3B861E
:1021B0002A860E9472173BE2C32ED12CE12CF12C0F
:1021C000A70196010E94E4176D5F7F4F8F4F9F4FCD
:1021D0007D836C834C865D866E867F86198B088B2B
:1021E0008A8A9B8AAC8ABD8A3F8A2E8A0E9472178D
:1021F000A70196010E94E4176D5F7F4F8F4F9F4F9D
:10220000798B688BDF91CF911F910F91FF90EF90A9
:10221000DF90CF90BF90AF909F908F907F906F9006
:102220005F904F903F902F900895CDB7DEB72897DD
:10223000DEBFCDBF789483E084BD83E085BD81E0BF
:1022400080936E00E1E8F0E083E08083E0E881E0E5
:102250008083E1E983E08083E0E981E08083E1EC51
:1022600087E08083E3EC81E08083E0EC82E08083A0
:10227000E2EC81E08083EAE787E080838068808306
:102280001092EB021092DB021092DD028091D700D7
:1022900081608093D70080EA8093D80089B58061FF
:1022A00089BD89B5826089BD09B400FEFDCF81E09A
:1022B00090E00E9462098091D8008F7C80618093B9
:1022C000D8008091E000807F8093E0008091E10061
:1022D0008E7E8093E1008DE08093E200559A209AF3
:1022E00081EC80937C0081EF85B987EE84B984E32B
:1022F0008BB984EF8AB9769A6E9880EF81BB10BA59
:1023000080E58CBD81E08DBD85E00E94270C5F9A41
:1023100085E00E94270C5C98ECE5F6E085918EBD87
:1023200000000DB407FEFDCFE936C1F75C9A81E8E5
:102330008093640081E0809365000E94740C80E8C3
:102340000E94690C8823A9F05C9885EA8EBD000084
:102350000DB407FEFDCF5C9A2E982F982D98809192
:10236000640080628093640081E083BF889513BE1F
:10237000FCCF84E00E94690C8823B9F12D9884E891
:102380000E94690C8823A1F02D9A88EC0E94270CEA
:102390002F986FEF82E090E00E94D21784EF91E0D7
:1023A0000E9462092F9A84E80E94690C8111FBCF78
:1023B00084E10E94690C8823A1F02D9A88EC0E9488
:1023C000270C2E9860E082E090E00E94D21784EF04
:1023D00091E00E9462092E9A84E10E94690C8111A9
:1023E000FBCF88EC0E94270CC4CF2D9A82E090E0AE
:1023F0000E94CA17882309F484C03E9A3F9A81E05C
:1024000090E00E94CA17182F147081FF0EC011119E
:102410002E9831EF832E99249A9480E40E94690CBF
:10242000882309F471C02E9A2F9A82E30E94270C08
:102430000E942A0C8111F9CF109290008AE08093BB
:10244000910080E180930001809164008E7F8093F1
:10245000640080917A00806480937A0080917A0091
:1024600086FDFCCF00917800109179000E94F90957
:10247000AB01BC01C801B0E0A0E0DC0199278827CE
:102480008C019D01040F151F261F371FC901B801BC
:10249000209164002160209364006115710581051D
:1024A000910511F00E94C1170E9472171DE2C12E02
:1024B000D12CE12CF12CA70196010E94E417DC013C
:1024C000CB010396A11DB11D0E94CB070E9472177C
:1024D000A70196010E94E417DC01CB010396A11D20
:1024E000B11D0E94CB078091B802882309F4B2C0C5
:1024F0001092B80280E090E0892BA9F30E940000BE
:10250000F2CF3E983F987BCF112331F004E0801644
:10251000910411F42E9A2F9881E00E94F107282D42
:102520002770B22EA40183E0559547958A95E1F76F
:10253000CA019695982F88279795879584599C4F1F
:1025400070E060E04E3F3FEF530771F1DC01A058AF
:10255000B10930E020E0FB01E455FA4F7F01F701BB
:10256000E20FF31FE491F0E03F010B2C02C0660C78
:10257000771C0A94E2F74F3F540739F054960C91B8
:102580005497062954960C935497BB2039F06C014C
:10259000C20ED31EF60104890729048B2F5F3F4F1B
:1025A000119628353105D9F64F5F5F4F80589F4F00
:1025B000685A7F4F603B710529F60E94740C8FE0CA
:1025C0000E94270CFFEF8F1A9F0A09E180169104E1
:1025D00009F023CF112311F02F9A2D9880E991E073
:1025E0000E9462092D9A81E090E00E94CA1780FF44
:1025F0001CCF8AE090E00E94CA179FEF980F9E3F81
:1026000008F013CF22E330E03093C2022093C102DE
:1026100028E330E03093C4022093C3020AE010E0C4
:102620001A830983682F84E597E00E94920C098140
:102630001A810F5F1F4F1A830983C8010E94CA17AE
:102640000031110579F70E94740C88EE93E00E9426
:102650006209EBCE9091CE028091B902192F181B1E
:10266000812F20910001121748F48F5F821708F024
:1026700041CF81E083BF889513BE3CCF81E080933A
:10268000B8029093B902E6EBF2E080819181019665
:10269000808391832AE037ED43E25CE36091C802D6
:1026A0007091C9028091CA029091CB020E94481891
:1026B0006093C8027093C9028093CA029093CB02C0
:1026C0008091C502882339F081508093C502811121
:1026D00002C01092900090E0ECEEF2E091119FEFBA
:1026E0008FEF91939193919391938150D0F71092A2
:1026F000C4021092C3021092C2021092C1028091D1
:10270000C6029091C702892BF1F4E1EDFAE0049141
:10271000E2EDFAE0E490B2E0CB2E30E020E043EDD1
:102720005AE070E060E090E080E00E943E0A88E0BD
:102730000E94690C882309F44FC381E090E09093D4
:10274000C7028093C6028091C6029091C70201978A
:1027500009F042C38091BE02811120C001E011E066
:102760001A8219820E94721720E830E040E050E09F
:102770000E94E417D80111967C936E93E981FA8147
:102780001396FC93EE9312970A5F1F4F3596FA83C8
:10279000E983F29739F781E08093BE0201E011E00E
:1027A0001A830983A981BA8112966D917C9113973E
:1027B00041E08D919C910E94770CE981FA818081A2
:1027C000918124813581820F931F813891050CF00E
:1027D000EFC09183808309811A810A5F1F4F1A839A
:1027E00009830D531140F1F681E491E09A838983C6
:1027F0009C838B83AB81BC8114966D917D918D916F
:102800009C9117970E94B9184B01EB81FC81608164
:102810007181828193810E94B9186B0184010150FA
:10282000110921E043E0B801C6010E94F50CC60180
:10283000019621E041E0B4010E94F50C21E043E063
:10284000B801C6010E94F50CC601019721E041E0E4
:10285000B4010E94F50C21E043E0B801C6010E94DA
:10286000F50C0B811C81005F1F4F1C830B830158EB
:10287000124009F0BFCFEBE6FAE00491FCE6AF2E80
:10288000FAE0BF2EF501E490809040079090410758
:1028900060913C0770913D0780913E0790913F0702
:1028A0000E94B918CB01A3E0CA2E30E020E04DE62B
:1028B0005AE0B4010E943E0AEBE6FAE00491F50109
:1028C000E49080904C0790904D076091480770917C
:1028D000490780914A0790914B070E94B918CB0194
:1028E00030E020E04DE65AE0B4010E943E0A8091BB
:1028F000BF029091C002009731F06AE070E00E9440
:10290000A6190697A4F0EFE8FAE00491E0E9FAE0EE
:10291000E49060913F0170914001E3E0CE2E30E001
:1029200020E041E95AE08EE690E00E943E0A01E094
:102930002EE34EE761E070E081E090E00E941E0D22
:1029400000E020E440E870E060E090E080E00E9479
:102950001E0D03E010E01C830B83B12CA12C4DE76E
:10296000642E4AE0742E5EE7852E5AE0952E809103
:102970003D0190913E01A816B9060CF5F3010491B2
:10298000F401E49033E0C32E30E020E04FE75AE05A
:1029900065E370E08B819C810E943E0AFFEFAF1AD5
:1029A000BF0A0B811C81075F1F4F1C830B83DFCF86
:1029B00080589109A981BA818D939C930CCF01E431
:1029C00011E0D80118964D905D906D907C901B970A
:1029D0002D913D914D915C91C301B2010E94481827
:1029E0006B017C01F801C082D182E282F38220E097
:1029F00030E0A9010E94B41887FD09C220E030E050
:102A000040E053E4C701B6010E94A11918160CF466
:102A1000FEC1D8011C962D913D914D915C911F975F
:102A200014966D917D918D919C9117970E944818F5
:102A3000F80164837583868397832CE3222E27E035
:102A4000322E5101C701B6010E94B9186B837C83F5
:102A50008D839E838B809C80D80114966D917D918F
:102A60008D919C9117970E94B918F5010480F5810A
:102A7000E02DE61BF70BF887EF83F7FF05C0F19514
:102A8000E195F109F887EF83D5016D917D918D91E5
:102A90009C910E94B918EB81FC816E1B7F0B77FF24
:102AA00003C07195619571092F813885260F371FF5
:102AB0002730310584F4E4EFF1E0D5011596FC935D
:102AC000EE93149780E090E0AAEFB3E4F8018483DA
:102AD0009583A683B783FCE0AF0EB11C24E537E0F5
:102AE0002A153B0509F0AECFD80114966D917D9162
:102AF0008D919C9117970E94B91820913F013091B8
:102B00004001C901861B970B97FF03C091958195E2
:102B100091092EE630E02819390937FF03C03195B5
:102B200021953109820F931F0F978CF420E030E03C
:102B3000A901C301B2010E94A119181644F48091A1
:102B4000BF029091C002892B11F40E944F0D005FCB
:102B50001F4FB2E001381B0709F033CFF101848128
:102B600095818038910584F426813781408551858F
:102B700060817181828193810E944818D1016D9397
:102B80007D938D939C93139720E030E048E453E4C9
:102B9000F10160817181828193810E94A1191816CF
:102BA0001CF50E94721720E230E040E050E00E94E5
:102BB000E41760537109810991090E94F118D1014C
:102BC0006D937D938D939C9313970E9472172BE2C4
:102BD00030E040E050E00E94E4176D5F7F4F8F4F80
:102BE0009F4FF10175836483D101CD90DD90ED900D
:102BF000FC9020E030E04CED52E4C701B6010E94A9
:102C0000A11918163CF520E030E04CEF52E4C70162
:102C1000B6010E94B41887FF1DC0F10124813581DF
:102C200080913F0190914001821793079CF40F9689
:102C3000821793077CF08091BF029091C002892B8C
:102C400011F40E944F0DE4EFF1E0D1011596FC93D1
:102C5000EE931497FCE02F0E311CA214B30409F07C
:102C60007DCF80E10E94690C882361F080913F0153
:102C7000909140018E3291052CF401969093400181
:102C800080933F0180E80E94690C882361F0809165
:102C90003F0190914001833091052CF00197909372
:102CA000400180933F0188E00E94690C882309F469
:102CB00052C00091BC021091BD021C830B83012BFA
:102CC00009F049C020E030E04AEF53E4A981BA811D
:102CD00014966D917D918D919C9117970E94B418D7
:102CE0000B811C8181119DC094E0000F111F9A95EA
:102CF000E1F70F5B1E4F1A83098360913F017091CA
:102D00004001685F7F4F072E000C880B990B0E94D3
:102D1000F118D80114966D937D938D939C9317971A
:102D200080E090E0ACEDB2E4F80180839183A2836F
:102D3000B38300E010E020E83FEB00871187228793
:102D4000338714861586168617868FE090E0909359
:102D5000BD028093BC028091BC029091BD02181606
:102D600019062CF401979093BD028093BC028091C8
:102D7000BF029091C002181619062CF40197909387
:102D8000C0028093BF0280913D0190913E011816D0
:102D9000190634F082E090E09093C7028093C60257
:102DA0008091BA029091BB02009709F049C084E675
:102DB00090E09093BB028093BA020E9472172DE2BA
:102DC00030E040E050E00E94E417DC01CB010396C4
:102DD000A11DB11D0E94CB078091C6029091C70230
:102DE000029791F4E9E6F6E00491EAE6F6E0E49071
:102DF00082E0C82E30E020E04BE656E070E060E074
:102E000090E080E00E943E0A0E94740C73CB80E048
:102E100090E0AAEFB3E4F80184839583A683B78397
:102E20000CCE0F5F1F4F1C830B8329813A81205FDB
:102E30003F4F3A8329830431110509F043CF8BCFEB
:102E400001979093BB028093BA02C6CF8F929F9254
:102E5000AF92BF92CF92DF92EF92FF92CF93DF9328
:102E6000EC01688179818A819B81611571058105F9
:102E7000910521F464E279ED8BE597E02DE133EFE4
:102E800041E050E00E94E41749015A019B01AC0166
:102E9000A7EAB1E40E9403186B017C01ACEEB4EF29
:102EA000A50194010E941118C60ED71EE81EF91E36
:102EB000F7FE06C081E0C81AD108E10880E8F80AE8
:102EC000C882D982EA82FB82C701B6019F77DF916F
:102ED000CF91FF90EF90DF90CF90BF90AF909F90F9
:102EE0008F9008958F929F92AF92BF92CF92DF9270
:102EF000EF92FF9260918D0270918E0280918F020D
:102F000090919002611571058105910521F464E2AB
:102F100079ED8BE597E02DE133EF41E050E00E9441
:102F2000E41749015A019B01AC01A7EAB1E40E94F0
:102F300003186B017C01ACEEB4EFA50194010E9473
:102F40001118C60ED71EE81EF91EF7FE06C081E056
:102F5000C81AD108E10880E8F80AC0928D02D09220
:102F60008E02E0928F02F0929002C701B6019F7725
:102F7000FF90EF90DF90CF90BF90AF909F908F9099
:102F8000089560938D0270938E0280938F029093C8
:102F900090020895F999FECF92BD81BDF89A9927C4
:102FA00080B50895262FF999FECF92BD81BDF89A7C
:102FB000019700B4021639F01FBA20BD0FB6F8947D
:102FC000FA9AF99A0FBE0895052E97FB1EF4009405
:102FD0000E94FB1757FD07D00E94161807FC03D06C
:102FE0004EF40C94FB1750954095309521953F4F2A
:102FF0004F4F5F4F089590958095709561957F4FE5
:103000008F4F9F4F08950E943818A59F900DB49F31
:10301000900DA49F800D911D11240895B7FF0C946D
:1030200003180E940318821B930B0895A1E21A2E25
:10303000AA1BBB1BFD010DC0AA1FBB1FEE1FFF1F5C
:10304000A217B307E407F50720F0A21BB30BE40BAC
:10305000F50B661F771F881F991F1A9469F76095F3
:103060007095809590959B01AC01BD01CF010895AD
:10307000A29FB001B39FC001A39F700D811D1124B9
:10308000911DB29F700D811D1124911D08955058FE
:10309000BB27AA270E945F180C9467190E94591930
:1030A00038F00E94601920F039F49F3F19F426F49B
:1030B0000C9456190EF4E095E7FB0C945019E92F87
:1030C0000E94781958F3BA176207730784079507A7
:1030D00020F079F4A6F50C949A190EF4E0950B2ED5
:1030E000BA2FA02D0B01B90190010C01CA01A0015A
:1030F0001124FF27591B99F0593F50F4503E68F1B5
:103100001A16F040A22F232F342F4427585FF3CFF5
:10311000469537952795A795F0405395C9F77EF4C6
:103120001F16BA0B620B730B840BBAF09150A1F00F
:10313000FF0FBB1F661F771F881FC2F70EC0BA0F95
:10314000621F731F841F48F4879577956795B7951D
:10315000F7959E3F08F0B0CF9395880F08F0992718
:10316000EE0F9795879508950E942C1908F481E039
:1031700008950E94C0186894B1110C949B19089589
:103180000E94801988F09F5798F0B92F9927B7515E
:10319000B0F0E1F0660F771F881F991F1AF0BA95FB
:1031A000C9F714C0B13091F00E949A19B1E00895A6
:1031B0000C949A19672F782F8827B85F39F0B93F98
:1031C000CCF3869577956795B395D9F73EF49095AE
:1031D0008095709561957F4F8F4F9F4F0895E8942C
:1031E00009C097FB3EF490958095709561957F4F4F
:1031F0008F4F9F4F9923A9F0F92F96E9BB279395FD
:10320000F695879577956795B795F111F8CFFAF40C
:10321000BB0F11F460FF1BC06F5F7F4F8F4F9F4F3D
:1032200016C0882311F096E911C0772321F09EE89B
:10323000872F762F05C0662371F096E8862F70E001
:1032400060E02AF09A95660F771F881FDAF7880FDB
:103250009695879597F90895990F0008550FAA0B31
:10326000E0E8FEEF16161706E807F907C0F0121699
:103270001306E407F50798F0621B730B840B950B9C
:1032800039F40A2661F0232B242B252B21F40895F1
:103290000A2609F4A140A6958FEF811D811D08958E
:1032A00097F99F6780E870E060E008959FEF80ECF9
:1032B000089500240A94161617061806090608959C
:1032C00000240A9412161306140605060895092E02
:1032D0000394000C11F4882352F0BB0F40F4BF2B71
:1032E00011F460FF04C06F5F7F4F8F4F9F4F0895B1
:1032F00057FD9058440F551F59F05F3F71F04795A7
:10330000880F97FB991F61F09F3F79F0879508958B
:10331000121613061406551FF2CF4695F1DF08C0AA
:10332000161617061806991FF1CF869571056105C7
:1033300008940895E894BB2766277727CB0197F96F
:1033400008950E942C1908F48FEF089597FB072E1B
:1033500016F4009407D077FD09D00E94BA1907FC33
:1033600005D03EF4909581959F4F08957095619595
:103370007F4F0895AA1BBB1B51E107C0AA1FBB1FAB
:10338000A617B70710F0A61BB70B881F991F5A95F1
:10339000A9F780959095BC01CD010895EE0FFF1F10
:0C33A0000590F491E02D0994F894FFCF03
:1033AC00100C000C0002000C000C0002000C000CB5
:1033BC000002000C000C0002000C000C0002000CBF
:1033CC00000C0002000C000C0002000C000C0002AF
:1033DC00000C000C0002000C000C00020005001890
:1033EC00000000A0400000FA4300000000000000B4
:1033FC00000000A0400000FA4300000000000000A4
:10340C00000000A0400000FA430000000000000093
:10341C00000000A0400000FA430000000000000083
:10342C00000000A0400000FA430000000000000073
:10343C00000000A0400000FA430000000000000063
:10344C00000000A0400000FA430000000000000053
:10345C00000000A0400000FA430000000000000043
:10346C00000000A0400000FA430000000000000033
:10347C00000000A0400000FA430000000000000023
:10348C00000000A0400000FA430000000000000013
:10349C00000000A0400000FA430000000000000003
:1034AC00000000A0400000FA4300000000000000F3
:1034BC00000000A0400000FA4300000000000000E3
:1034CC00000000A0400000FA4300000000000000D3
:1034DC00000000A0400000FA4300000000000000C3
:1034EC00000000A0400000FA4300000000000000B3
:1034FC00000000A0400000FA4300000000000000A3
:10350C00000000A0400000FA430000000000000092
:10351C00000000A0400000FA430000000000000082
:10352C0000FFFFFFFF00E1000000000000010000B1
:10353C000000C18081000000000000004F087609E7
:10354C0070086508B6087408920800000000920C18
:06355C00110A6C0D6B0D5D
:00000001FF
